:020000040800F2
:100000000008002001010008593C0008E7330008FF
:10001000013C0008190D00087D47000800000000A1
:100020000000000000000000000000003D3E00084D
:10003000390E000800000000113E00084D40000885
:100040001B0100081B0100081B0100081B01000820
:100050001B0100081B0100081B0100081B01000810
:100060001B0100081B0100081B010008ED0D000822
:100070001B0100081B0100081B010008FD0D000802
:100080001B0100081B0100081B0100081B010008E0
:100090001B0100081B0100081B0100081B010008D0
:1000A0001B0100081B0100081B0100081B010008C0
:1000B0001B0100081B0100081B0100081B010008B0
:1000C0001B0100081B0100081B0100081B010008A0
:1000D0001B0100081B0100081B0100081B01000890
:1000E0001B0100081B0100081B010008DFF80CD0F1
:1000F00000F036FC00480047514E00080008002080
:100100000648804706480047FEE7FEE7FEE7FEE7B1
:10011000FEE7FEE7FEE7FEE7FEE7FEE7D940000860
:10012000ED000008202A04DB203A21FA02F0002129
:10013000704721FA02F3D040C2F1200291400843F7
:1001400019467047D2B201E000F8012B491EFBD2DC
:1001500070470022F6E710B513460A4604461946D2
:10016000FFF7F0FF204610BDF0B480EA0102D40F83
:100170004200B2EB410F02D20246084611464A0045
:1001800042D0C30DDDB2C1F3C752AD1A202D35DA0E
:10019000C1F3160141F4000204B15242C5F1200638
:1001A00002FA06F12A411044B3EBD05F23D0C4B168
:1001B000012DA0EBC35009DCF0BC4FF0004202EA75
:1001C000C352DBB200F5000000F0ECBA400000F1D1
:1001D000807000EBC350A0F1807040EAD1704900FC
:1001E00009E0490841EAC071A0EBC35000F50000E6
:1001F000400800EBC350F0BC00F0CBBA61420122D2
:1002000002EB4101001BF6E7F0BC704781F00041B2
:10021000AAE780F00040A7E780EA010210B502F0EB
:100220000043400022D04A001FD0010E01EB1261B2
:10023000C0F35600C2F3560240F4000042F400023C
:10024000A0FB022000047F39140400D0401C50EAB7
:10025000124001D44000491EC2B20C0604EBD0107B
:10026000401C4008802A02D003E0002010BD20F08E
:100270000100002900DA0020184310BD30B480EAE4
:10028000010202F0004530F0004221F0004013D09E
:1002900090B1C30DD40DC2F31601C0F31600E41AD9
:1002A00041F4000140F400027D34914201D3641C0A
:1002B00000E04900002C02DA30BC002070474FF407
:1002C00000000023914201D3891A034340084FEAFA
:1002D0004101F7D151B1914202D14FF0004105E007
:1002E00002D24FF0010101E06FF0010103EBC450B5
:1002F000284430BC00F04DBA2DE9FE4F804681EA1B
:100300000300C00F0C46009021F0004123F000458F
:10031000B8EB0200A94105D24046214690461C4652
:100320000B46024623F00040104347D0270DC7F389
:100330000A00C3F30A510290401A019040286BDA78
:10034000C3F3130040F4801B0098924620B10023B1
:10035000D2EB030A63EB0B0B01985946C0F1400244
:10036000504600F0F5F906460D4650465946019AAA
:1003700000F0FDF910EB08006141002487EA1152FA
:1003800084EAE7731A4340D0009A62B3019A012AC3
:100390004FEA075215DC001B61EB02014FF00042EF
:1003A00002EA0752CDE90042001C41F580113246B5
:1003B0002B4600F087FA03B0BDE8F08F4046214697
:1003C000F9E7001B61EB0201001C41F580130018E6
:1003D0005B412018A2F5001747EB030140EAD570F6
:1003E000B6196D4111E06D084FEA360645EAC07551
:1003F0004FEA0752001B61EB0201001C41F580111E
:1004000049084FEA30000019514132462B4603B0EB
:10041000BDE8F04F00F047BA0098012240000023E9
:10042000D0EB020263EBE073009821464FEAE074E0
:10043000B8EB000061EB0401E9E783F000435BE700
:1004400081F0004158E72DE9FE4F81EA030404F0F2
:10045000004421F0004100944FF0000B23F00043D2
:1004600050EA01045ED052EA03045BD0C3F30A549D
:10047000C1F30A552C44A4F2F3340194A0FB0254B6
:10048000C1F3130141F48011C3F3130343F4801348
:1004900001FB024400FB034E840A970A44EA81549C
:1004A00047EA8357A4FB076802958D0A05FB078579
:1004B0004FEA932C04FB0C542705029D4FEA065883
:1004C00047EA1637B5EB08056EEB070C870E920E60
:1004D00047EA811742EA8312A7FB0201B6EB0B0140
:1004E00064EB00042B0D43EA0C335E1844EB1C5004
:1004F000DA465146E7FB0201C5F313044FEA0B331A
:1005000043EA14534FEA0432019C43EA0603A4F180
:100510000C040294009CCDE900B400F0D3F903B0C0
:10052000BDE8F08F00200146F9E72DE9F04D81EAA2
:10053000030404F0004B21F0004514464FF0000A7C
:1005400023F0004150EA050220D054EA01021DD0F8
:10055000C5F30A570246C5F31303C1F31300C1F3F1
:100560000A5640F4801543F48013A7EB0608101BCD
:10057000D64608F2FD3873EB050002D308F10108F6
:1005800001E092185B41B8F1000F03DA0020014648
:10059000BDE8F08D00204FF48011064684460EE041
:1005A000171B73EB050705D3121B63EB050306430B
:1005B0004CEA010C49084FEA300092185B4150EABE
:1005C0000107EDD152EA030012D082EA040083EA67
:1005D0000501084305D0101BAB4106D201220023C0
:1005E00006E000224FF0004302E06FF001025310DA
:1005F0001AEB06004CEB085110EB0A0041EB0B0123
:10060000BDE8F04D00F04FB9002801DBC0F100401B
:10061000002901DBC1F10041814201D20120704774
:1006200000207047C10F80EAE0700844CA07962393
:10063000002100F0B7B896230022114600F0B2B8AE
:1006400000F0004220F00040C10DC0F3160040F45D
:1006500000007F2901DA00207047962903DCC1F1F0
:100660009601C84001E096398840002AF4D0404203
:10067000704720F00040C10DC0F3160040F40000A8
:100680007F2901DA00207047962903DCC1F1960129
:10069000C840704796398840704700F0004230F0FB
:1006A00000400AD0C10D01F56071C0F3160042EAA6
:1006B0000151C208400711437047002001467047AE
:1006C00030B5041E71F1000404DB4FF000444042D9
:1006D00064EB0101141E73F1000405DB1C464FF0AE
:1006E0000043524263EB0403994208BF904230BD7D
:1006F00001F0004330B421F0004150EA010206D07D
:100700000A0DA2F56072C1F31301002A02DC30BCAD
:1007100000207047440F44EAC104C100E01830BC17
:1007200000EBC25000F035B8002801DBC0F10040FA
:10073000002901DBC1F1004181427047002801DB43
:10074000C0F10040002901DBC1F10041884270473F
:10075000202A04DB203A00FA02F100207047914081
:10076000C2F1200320FA03F3194390407047202A76
:1007700006DBCB17203A41FA02F043EAE07306E0C9
:1007800041FA02F3D040C2F12002914008431946D9
:1007900070470029A8BF7047401C490008BF20F0DF
:1007A0000100704710B4B0FA80FC00FA0CF050EA77
:1007B000010404BF10BC704749B1CCF1200421FAF8
:1007C00004F411FA0CF118BF012121430843A3EBF3
:1007D0000C01CB1D4FEA00614FEA102042BF002000
:1007E00010BC704700EBC35010440029A4BF10BCDC
:1007F0007047401C490008BF20F0010010BC704742
:10080000420005D0C0F3C7525242914201DC0020A1
:10081000704700EBC150704710B541000CD0C0F3D9
:10082000C751962908DC7E2909DC06DB410204D089
:1008300000F0004040F07E5010BD002010BDC1F11E
:100840009604C4F1200100FA01F1E040FFF7A1FF96
:10085000A04010BDF0B400F0004221F0004120F0B3
:100860000040CE0DC30DC1F3160141F40001C0F3E9
:1008700016004C42154640F40000761E09E010EBCD
:10088000440002D582F0004240428842F7D840003E
:100890005B1EB342F9DA18B1F0BC0021FFF782BF4A
:1008A0002846F0BC704710B5141E73F1000408DA36
:1008B000401C41F1000192185B411A4301D120F024
:1008C000010010BD2DE9F04D92469B4611B1B1FAE1
:1008D00081F202E0B0FA80F220329046FFF738FF52
:1008E00004460F4640EA0A0041EA0B0153465A46C5
:1008F000084313D0114653EA010019D0C8F1400251
:100900005046FFF70FFC05460E46504659464246F4
:10091000FFF71EFF084305D0012004E020463946BA
:10092000BDE8F08D0020054346EAE0762C433743CE
:100930000A986305E40AA0EB08000022FD0A44EAD5
:1009400047540A3002D500200146E9E70105101995
:100950006941DDE9084500196941BDE8F04DA2E7AC
:10096000064C074D06E0E06840F0010394E80700FC
:1009700098471034AC42F6D3FFF7BCFB985D0008F3
:10098000B85D0008F0B4002802DCF0BC002070471D
:10099000C0F3C751C0F3160040F40000CA0701D1EC
:1009A0004000491E3F2202EB6105002211464FF430
:1009B000000626FA01F31344D418844201D8001B20
:1009C0001A464000491C1729F3DD5100814202D22A
:1009D0004FF0FF3100E0002102EBC550F0BCFFF703
:1009E000D8BE70B58C1810F8015B15F0070301D163
:1009F00010F8013B2A1106D110F8012B03E010F882
:100A0000016B01F8016B5B1EF9D12B0705D40023A4
:100A1000521E0DD401F8013BFAE710F8013BCB1A46
:100A2000921C03E013F8015B01F8015B521EF9D53B
:100A3000A142D8D3002070BDF0B581B04FF683112C
:100A4000C3F62261FFF7E8FB4FF07A51FFF78CFB0A
:100A50000446FFF7F5FD0546204600210027FFF775
:100A6000D3FD002818BF013D2846FFF7DBFD0146F6
:100A70002046FFF7CBFB4FF08841FFF7CDFB044644
:100A8000FFF7DEFD054620464FF04441FFF76CFBC3
:100A90000646B7EB552F14BF002526462846FFF71C
:100AA000CAFD01463046FFF7B1FB45F29451C0F64E
:100AB000000101EB8502064651F8254055684FF0CC
:100AC0007E503146FFF7A2FB2146FFF7A5FB044607
:100AD00030462946FFF7A0FB01462046FFF744FBBE
:100AE00001B0F0BDF0B581B04FF68311C3F62261BD
:100AF000FFF792FB0446FFF7A3FD054620460021C1
:100B00000027FFF781FD002818BF013D2846FFF7A9
:100B100089FD01462046FFF779FB4FF08841FFF73A
:100B20007BFB0446FFF78CFD054620464FF0444111
:100B3000FFF71AFB0646B7EB552F14BF00252646D4
:100B40002846FFF778FD01463046FFF75FFB45F288
:100B50009451C0F6000101EB8502064651F825408C
:100B600055684FF07E503146FFF750FB2146FFF7A6
:100B700053FB044630462946FFF74EFB014620460C
:100B8000FFF7F2FA01B0F0BD70B504460025206809
:100B9000806800F0010018B32068806820F0010030
:100BA0002168886001F070F8054613E001F06CF8E8
:100BB000401B02280ED92068806800F0010048B16F
:100BC000A06A40F01000A062E06A40F00100E0621C
:100BD000012070BD2068806800F001000028E5D188
:100BE0000020F6E770B505466C6AA06A00F0500078
:100BF000E0B9A06A40F40070A0622068806800F448
:100C00006020B0F5602F0DD1207B58B9A06A20F488
:100C10008070A062A06A00F4805018B9A06A40F009
:100C20000100A062204600F079FB03E0206A016B1E
:100C30002846884770BD70B505466C6AA06A40F0CA
:100C40004000A062E06A40F00400E062204600F04C
:100C500067FB70BD70B50446656A284600F05FFB0F
:100C600070BD000038B504460025002000902068C3
:100C7000806800F0010078BB2068806840F00100C7
:100C800021688860194800681949B0FBF1F00090AC
:100C900002E00098401E009000980028F9D100F072
:100CA000F3FF054619E000F0EFFF401B022814D9BE
:100CB0002068806800F0010078B9A06A40F0100058
:100CC000A062E06A40F00100E06200BF002084F80A
:100CD000240000BF012038BD05E02068806800F0D6
:100CE00001000028DFD00020F5E70000800100208F
:100CF00040420F00FEB504460D4616463220012341
:100D000022466C21CDE900560290024801F0AAF873
:100D1000FEBD0000D802002000BFFEE710B50D4B5D
:100D200000220D490D4803F08BF840F6B83000F072
:100D300001FE0A4804F01AF809490860054B002230
:100D40001146064803F07CF84FF4FA7000F0F2FD0B
:100D500010BD0000E4CB9640000040408C01002014
:100D60007400002070B50446204600F067F815486E
:100D700000F096F9144815490860154815490860AF
:100D8000124801684FF07E50FFF778FA0546114887
:100D900001682846FFF772FA0F4908600F490E48AC
:100DA0000068FFF739FA0E4908600C490A480068E4
:100DB000FFF732FA0B490860074800680A490860E3
:100DC00070BD0000640200200AD7233CA000002070
:100DD00000004842A4000020A8000020000080BFBE
:100DE000AC000020B0000020B400002010B5024884
:100DF00000F050FC10BD00009402002010B5024825
:100E000000F048FC10BD0000BC03002030B590F895
:100E100040500124AC40C56B6C600468636044685A
:100E2000102C04D10468A2600468E16003E0046847
:100E3000A1600468E26030BD704700002DE9F04118
:100E400004464FF47A75002625E002221D491E480B
:100E500000F060FB1B491D4A126831F81200FFF7D1
:100E6000EAFB80461A49FFF7D7F90746E168FFF722
:100E70007BF9E0601349174A126831F81200FFF756
:100E8000DAFB80461249FFF7C7F907462169FFF7E9
:100E90006BF92061761CAE42D7DB2846FFF7CBFB0F
:100EA00006463146E068FFF7E9F9E0602846FFF7BB
:100EB000C2FB064631462069FFF7E0F92061BDE834
:100EC000F0810000CC00002064020020D40000204B
:100ED0005940533AD800002072B600BFFEE7000028
:100EE00010B504460D48046000210D4802F0FAF8E0
:100EF00004210B4802F0F6F80821094802F0F2F844
:100F00000848FFF72FFF06490968C86AFFF793FBF7
:100F100005490860FFF702FF10BD000070000020C7
:100F20002C030020F0010020840000202DE9F04176
:100F30000446204600F032F805462846A168FFF72F
:100F400065F980464046FFF7A8FB21F000410646C0
:100F50004FF000420F4BFFF7B3FB0BD2002140468E
:100F6000FFF7ECFB02D24FF0FF3000E00120E16818
:100F70000844E060A560E068FFF754FB07460649B7
:100F8000FFF74AF90646A168FFF7EEF8606060686F
:100F9000BDE8F0812F1B1440DB0FC940F8B50446B3
:100FA00000200090022269460C20FFF7A3FE9DF866
:100FB00001009DF8001040EA012005B22846FFF725
:100FC00031FB07460549FFF727F906464FF08B41ED
:100FD000FFF754F960606068F8BD0000DB0FC9409E
:100FE0002DE9FE4F04464FF0E02085690027606937
:100FF000A84213DA264927480068FFF73FF98146DF
:101000006169681AFFF70EFB82464946FFF736F919
:1010100080462149FFF700F907461FE01C491D489B
:101020000068FFF72BF902902846FFF7FBFA0190C2
:101030006069FFF7F7FA0090164801680098FFF71B
:10104000E8F882460199FFF78FF881460299FFF789
:1010500015F980461049FFF7DFF807460F49384673
:10106000FFF762FB00D20D4F2046FFF75FFF0646F9
:101070003046A169FFF7CAF8834639465846FFF75C
:10108000FDF820616561A6612069BDE8FE8F000062
:1010900000007A44DC0000206F12833A17B7D13881
:1010A000F8B5044600260020009000BF94F8240004
:1010B000012801D10220F8BD012084F8240000BFDE
:1010C0002046FFF761FD06462046FFF7CBFD0646AA
:1010D000002E69D1A06A20F4885040F00200A0627E
:1010E000022001F087F934490968B1FBF0F04000B3
:1010F000009002E00098401E009000980028F9D16E
:101100002068806840F008002168886000F0BCFD1D
:10111000054616E000F0B8FD401B0A2811D92068EA
:10112000806800F0080060B1A06A20F0020040F082
:101130001000A06200BF002084F8240000BF01203E
:10114000B9E72068806800F008000028E2D1206834
:10115000806840F004002168886000F095FD054635
:1011600016E000F091FD401B0A2811D92068806824
:1011700000F0040060B1A06A20F0020040F010000E
:10118000A06200BF002084F8240000BF012092E785
:101190002068806800F004000028E2D1A06A20F0F6
:1011A000020040F00100A06200BF002084F824008B
:1011B00000BF30467FE700008001002038B50246BE
:1011C00000230020009000BF92F82400012801D1E4
:1011D000022038BD012082F8240000BF486807289B
:1011E00012D21068406B0C79641E04EB84051F2436
:1011F000AC40A0430D796D1E05EB85050C68AC4035
:1012000020431468606327E048680D2812D21068F4
:10121000006B0C79E41F04EB84051F24AC40A04351
:101220000D79ED1F05EB85050C68AC402043146873
:10123000206311E01068C06A0C790D3C04EB840552
:101240001F24AC40A0430D790D3D05EB85050C68CE
:10125000AC4020431468E06208680A2812D3106882
:10126000C0680C780A3C04EB44050724AC40A0435A
:101270000D780A3D05EB45058C68AC4020431468A9
:10128000E0600FE0106800690C7804EB4405072467
:10129000AC40A0430D7805EB45058C68AC4020437D
:1012A000146820610868102802D00868112827D126
:1012B000174C1068A0421ED11068806800F400002E
:1012C000F0B91068806840F400001468A0600868F5
:1012D000102815D10F4800680F4CB0FBF4F000EB5C
:1012E00080004000009002E00098401E00900098AE
:1012F0000028F9D104E0906A40F0200090620123B8
:1013000000BF002082F8240000BF184661E70000FB
:10131000002401408001002040420F0070477047C8
:10132000704700002DE9F041044600270025002603
:10133000A84614B90120BDE8F081A06810B1207D55
:1013400000B100BFA06A30B90020E06284F8240038
:10135000204600F089F82046FFF716FC0746A06AF1
:1013600000F01000002873D1002F71D1A06A20F482
:10137000885040F00200A062E16960680843217B68
:1013800040EA41000643A068B0F5807F02D0A06823
:10139000012802D14FF4807000E000200543207D39
:1013A000012811D1207B38B9A069401E4FF400619B
:1013B00041EA4030054307E0A06A40F02000A06207
:1013C000E06A40F00100E0622068406820F4694073
:1013D00028432168486020688068214908403043DC
:1013E00021688860A068B0F5807F02D0A0680128DD
:1013F00002D14FF4807000E00020B0F5807F03D16F
:10140000208A401E4FEA00582068C06A20F470000D
:1014100040EA08002168C8622068806811490840D5
:10142000B04208D10020E062A06A20F0020040F043
:101430000100A06211E0A06A20F0020040F010005C
:10144000A062E06A40F00100E062012705E0FFE7EA
:10145000A06A40F01000A062012738466BE7000048
:10146000FDF7E1FFFE0E1FFF10B586B00446002019
:1014700002900390049005902149206888423CD155
:1014800000BF2048806940F400701E49886108460A
:10149000806900F40070019000BF00BF00BF0846E3
:1014A000806940F0080088610846806900F0080003
:1014B000019000BF00BF03200290039002A91248D0
:1014C00000F04CFA114812490860002048600021E1
:1014D0000F4881608021C16049000161890041613C
:1014E00000218161C16100F0A3F908B1FFF7F4FCAC
:1014F00000BF07482062446200BF06B010BD000074
:101500000024014000100240000C0140080002408D
:10151000940200202DE9F04104460D4616460027AE
:1015200057492068884203D056492068884205D12F
:101530005348001D006800F4702000E000200028DF
:101540007ED100BF94F82400012802D10220BDE81A
:10155000F081012084F8240000BF2046FFF782FBC1
:101560000746002F6DD1A06A40F60161884340F420
:101570008070A06243492068884209D14048001D1C
:10158000006800F4702008B9012002E0002000E0AB
:10159000012078B1A06A20F48010A0622068406821
:1015A00000F4806000B3A06A20F4005040F4805042
:1015B000A06219E0A06A40F48010A062304920685F
:1015C000884203D02F492068884205D12C48001D4D
:1015D000006800F4806000E0002028B1A06A20F4D8
:1015E000005040F48050A062A06A00F4805020B106
:1015F000E06A20F00600E06201E00020E06200BF47
:10160000002084F8240000BF1F48216A88621F4818
:10161000216AC8621E48216A08636FF002002168CF
:1016200008602068806840F48070216888602268C3
:1016300002F14C0133462A46206A00F02DF901E000
:101640001AE014E02068806800F46020B0F5602F94
:1016500006D12068806840F4A000216888600CE012
:101660002068806840F480102168886005E000BF31
:10167000002084F8240000E00127384667E70000D6
:101680000024014000280140E50B0008550C00082B
:10169000370C000870B50446E06B056820680668E2
:1016A00094F84010042088402840002846D006F0D6
:1016B0000400002842D02068006800F0200028B90B
:1016C0002068006820F004002168086057492068FD
:1016D000884201D1042027E054491431206888420F
:1016E00001D1402020E0514928312068884201D1B1
:1016F000001519E04D493C312068884202D14FF471
:10170000804011E0494950312068884202D14FF4AD
:10171000802009E0454964312068884202D14FF4B5
:10172000800001E04FF08060404908394860E06A7D
:1017300000287AD02046E16A884776E094F8401085
:10174000022088402840A0B306F0020088B3206839
:10175000006800F0200040B92068006820F00A000E
:1017600021680860012084F82100304920688842FF
:1017700001D1022028E02D4914312068884201D18E
:10178000202021E0294928312068884201D14015D4
:101790001AE026493C312068884202D14FF40050BB
:1017A00012E0224950312068884203D14FF40030C2
:1017B0000AE017E01D4964312068884202D14FF4E5
:1017C000001001E04FF0007018490839486000BF70
:1017D000002084F8200000BFA06A30B32046A16A30
:1017E000884722E094F84010082088402840E0B163
:1017F00006F00800C8B12068006820F00E002168DB
:10180000086094F8401001208840E16B4860012096
:10181000A06384F8210000BF002084F8200000BFEE
:10182000206B10B12046216B884770BD0800024034
:101830000146002209B901207047164B0868C01AFA
:101840001423B0FBF3F08000086412480838C86322
:10185000022081F821000868026843F6F070824394
:10186000D1E901031843CB6818430B6918434B694E
:1018700018438B691843CB69184302430868026018
:1018800000208863012081F82100002081F82000D9
:1018900000BFD1E7080002402DE9F04104460D46A3
:1018A00016461F464FF0000800BF94F8200001289C
:1018B00002D10220BDE8F081012084F8200000BFA1
:1018C00094F8210001282CD1022084F82100002066
:1018D000A0632068006820F00100216808603B4692
:1018E000324629462046FFF791FAE06A30B1206877
:1018F000006840F00E00216808600BE02068006876
:1019000020F00400216808602068006840F00A00A8
:10191000216808602068006840F0010021680860C4
:1019200006E000BF002084F8200000BF4FF002084E
:101930004046BFE770B5044600F0A6F906462546C6
:10194000681C10B104480078054400BF00F09CF901
:10195000801BA842FAD370BD7C0100202DE9F84716
:101960000346002294466EE14FF0010808FA02F4A3
:10197000D1F8008008EA0400A0427DD1DFF8DCA2A3
:10198000D1F80480A8EB0A09D0453AD014DCB8F1AC
:10199000030F50D009DCB8F1000F31D0B8F1010FBE
:1019A0001CD0B8F1020F49D120E0B8F1110F18D0C6
:1019B000B8F1120F42D11EE0B9F5881F25D006DC20
:1019C000B9F5803F20D0B9F5801F37D11AE0B9F5BD
:1019D000001F18D0B9F5041F30D117E0D1F80CC0A2
:1019E0002DE0D1F80C8008F1040C28E0D1F80C802F
:1019F00008F1080C23E0D1F80C8008F10C0C1EE073
:101A000000BF00BF00BF00BF00BF00BFD1F808800B
:101A1000B8F1000F02D14FF0040C0BE0D1F80880B0
:101A2000B8F1010F03D14FF0080C1C6102E04FF038
:101A3000080C5C6103E04FF0000C00E000BF00BF49
:101A4000FF2801D8984601E003F104084646FF2824
:101A500002D84FEA820803E0A2F108084FEA88089A
:101A60004746D6F800804FF00F0909FA07F928EA2F
:101A700009080CFA07F900E088E048EA0908C6F806
:101A80000080D1F8048008F08058B8F1805F7DD1E3
:101A900000BFDFF8CC81D8F8188048F00108DFF8E3
:101AA000C091C9F81880C846D8F8188008F0010815
:101AB000CDF8008000BF00BF4FEAB9384FEA920965
:101AC00058F829504FEA82784FEA18794FF00F08FA
:101AD00008FA09F825EA0805DFF88881434502D1AC
:101AE0004FF0000816E0DFF88081434502D14FF047
:101AF00001080FE0DFF87481434502D14FF002087E
:101B000008E0DFF86C81434502D14FF0030801E0A3
:101B10004FF004084FEA82794FEA197908FA09F878
:101B200048EA0505DFF84C814FEA920948F8295048
:101B3000D1F8048008F48018B8F5801F0AD1DFF8C6
:101B40003881D8F8008048EA0008DFF82C91C9F8FD
:101B5000008009E0DFF82081D8F8008028EA00083A
:101B6000DFF81491C9F80080D1F8048008F4001857
:101B7000B8F5001F10D1DFF8008108F10408D8F88B
:101B8000008048EA0008DFF8F09000E05AE009F130
:101B90000409C9F800800DE0DFF8DC8008F10408D2
:101BA000D8F8008028EA0008DFF8CC9009F1040991
:101BB000C9F80080D1F8048008F40038B8F5003F77
:101BC0000ED1DFF8B480A8F10408D8F8008048EA04
:101BD0000008DFF8A490A9F10409C9F800800DE01D
:101BE000DFF89480A8F10408D8F8008028EA0008FB
:101BF000DFF88490A9F10409C9F80080D1F80480C5
:101C000008F48038B8F5803F0ED1DFF86C80A8F179
:101C10000808D8F8008048EA0008DFF85C90A9F1CD
:101C20000809C9F800800DE0DFF84C80A8F1080829
:101C3000D8F8008028EA0008DFF83C90A9F10809EC
:101C4000C9F80080521CD1F8008028FA02F8B8F1D7
:101C5000000F7FF489AEBDE8F88700000000111086
:101C60000010024000080140000C0140001001403B
:101C70000014014008000140080401400AB101615C
:101C800001E00B04036170470148006870470000E1
:101C90007401002070B504460CB9012070BD94F8A1
:101CA0003D0028B9002084F83C00204600F094FA5A
:101CB000242084F83D002068006820F0010021689D
:101CC00008602068006840F40040216808602068CF
:101CD000006820F400402168086000F06DFD0546B2
:101CE0005C496068884206D85B48854201D2012081
:101CF00007E0002005E05948854201D2012000E0BC
:101D00000020012800D1C9E75548B5FBF0F620684E
:101D1000406820F03F003043216848604D496068CA
:101D2000884201D8701C07E04FF4967070434FF45E
:101D30007A71B0FBF1F0401C2168096A21F03F0183
:101D400008432168086243496068884214D8681EC5
:101D500061684900B0FBF1F0401CC0F30B0004289F
:101D600001D204203DE0681E61684900B0FBF1F03B
:101D7000401CC0F30B0034E0A06838B9681E6168ED
:101D800001EB4101B0FBF1F0401C0AE0681E616804
:101D900001EBC10202EB0111B0FBF1F0401C40F479
:101DA0008040C0F30B0008B901201AE0A06848B9D0
:101DB000681E616801EB4101B0FBF1F0401CC0F30B
:101DC0000B000CE0681E616801EBC10202EB01111F
:101DD000B0FBF1F0401CC0F30B0040F4804040F435
:101DE00000402168C9694CF6FF729143084321689D
:101DF000C861D4E9070108432168096821F0C001DE
:101E0000084321680860D4E9031008432168896801
:101E100048F2FF329143084321688860D4E9050104
:101E200008432168C96821F0FF0108432168C860A0
:101E30002068006840F001002168086000202064EC
:101E4000202084F83D000020206384F83E0000BF7D
:101E500024E70000A086010080841E0000093D00E8
:101E600040420F002DE9FE4F04460F46904699462A
:101E7000DDE90CAB0E9E00200290FFF705FF054642
:101E800094F83D00202872D119230122CE49204622
:101E9000009501F079FB10B10220BDE8FE8F00BF74
:101EA00094F83C00012801D10220F6E7012084F8D3
:101EB0003C0000BF2068006800F0010028B92068DD
:101EC000006840F00100216808602068006820F484
:101ED000006021680860222084F83D00402084F8DA
:101EE0003E0000202064C4F824A0A4F82AB0608D2D
:101EF0002085B648E0624B46424639462046CDE949
:101F0000006501F091FA08B10120C6E7208D88B97B
:101F100000BF00200190206840690190206880691E
:101F2000019000BF00BF2068006840F40070216885
:101F300008604BE0208D01281AD12068006820F449
:101F400080602168086072B600BF002001902068A0
:101F50004069019020688069019000BF00BF20683F
:101F6000006840F400702168086062B62EE029E144
:101F7000208D022819D12068006840F40060216893
:101F8000086072B600BF002001902068406901908F
:101F900020688069019000BF00BF2068006820F4BD
:101FA00080602168086062B610E02068006840F434
:101FB00080602168086000BF0020019020684069AF
:101FC000019020688069019000BF00BFEBE0208D88
:101FD00003287DD8208D012815D12A463146204678
:101FE00001F0AEFB08B1012057E720680069616A83
:101FF0000870606A401C6062208D401E2085608DE4
:10200000401E6085CFE0208D02282CD1334600226F
:102010006F492046009501F0B7FA08B101203CE76E
:1020200072B62068006840F400702168086020687B
:102030000069616A0870606A401C6062208D401E01
:102040002085608D401E608562B620680069616AE7
:102050000870606A401C6062208D401E2085608D83
:10206000401E60859FE03346002259492046009576
:1020700001F08AFA08B101200FE72068006820F417
:1020800080602168086072B620680069616A087023
:10209000606A401C6062208D401E2085608D401E5D
:1020A00060854C4800681921B0FBF1F04FF47A715B
:1020B000B0FBF1F0C0EBC00000EB8000029000BF6D
:1020C0000298401E02900298A8B90020206300E008
:1020D00039E0202084F83D00002084F83E00206C88
:1020E00040F02000206462B600BF002084F83C006D
:1020F00000BF0120D1E620684069C0F380000028BD
:10210000DED02068006840F4007021680860206814
:102110000069616A0870606A401C6062208D401E20
:102120002085608D401E608562B620680069616A06
:102130000870606A401C6062208D401E2085608DA2
:10214000401E60852FE02A463146204601F0F8FA0D
:1021500008B10120A1E620680069616A0870606A20
:10216000401C6062208D401E2085608D401E608571
:1021700020684069C0F38000A8B1208D032805D1F4
:102180002068006820F48060216808602068006989
:10219000616A0870606A401C6062208D401E208564
:1021A000608D401E6085208D00287FF410AF2020B8
:1021B00084F83D00002084F83E0000BF84F83C0015
:1021C00000BF6AE6022068E6020010000000FFFF80
:1021D000040001008001002010B586B004460020F4
:1021E000029003900490059016492068884226D1F9
:1021F00000BF1548806940F008001349886108460F
:10220000806900F00800019000BF00BF4FF44060FB
:102210000290122003900320059002A90B48FFF7BB
:102220009DFB00BF0848C06940F480000649C861B2
:102230000846C06900F48000019000BF00BF06B0EE
:1022400010BD00000058004000100240000C01408A
:102250000348006803490978084401490860704749
:10226000740100207C01002010B50848006840F08F
:10227000100006490860032000F0A8F80F2000F0C5
:1022800007F800F02BF8002010BD000000200240ED
:1022900070B504460E4800784FF47A71B1FBF0F047
:1022A0000C490968B1FBF0F5284600F00FFD08B1B4
:1022B000012070BD102C07D200222146501E00F0D4
:1022C00047F80548046001E00120F2E70020F0E74C
:1022D0007C010020800100207801002008B500BFAB
:1022E0001148806940F001000F4988610846806903
:1022F00000F00100009000BF00BF00BF0846C069A9
:1023000040F08050C8610846C06900F080500090DD
:1023100000BF00BF00BF0549486820F0E06040F002
:102320000070486000BF08BD00100240000001407E
:1023300001460846002809DB00F01F0301229A40ED
:1023400043099B0003F1E023C3F8002100BF70475D
:102350002DE9F05F80460D461646002702F02CFA64
:10236000074639462A46334601F00700C0F1070AFE
:10237000BAF1040F02D94FF0040A01E0C0F1070AD4
:10238000D14600F1040ABAF1070F02D24FF0000A59
:1023900001E0A0F1030AD4464FF0010A0AFA09FA53
:1023A000AAF1010A0AEA020A0AFA0CFA4FF0010B32
:1023B0000BFA0CFBABF1010B0BEA030B4AEA0B0423
:1023C0002146404602F000FABDE8F09F00BF00F051
:1023D0000702064B19684FF6FF031940044B0B43E5
:1023E00043EA0221014B196000BF70470CED00E089
:1023F0000000FA052DE9F04706464FF000080025D9
:1024000000270024A146012E31D0022E56D0102ED6
:102410005FD132484468006800F0807008B33048EB
:10242000C4F38341475C04F4803078B12B484068A2
:10243000C0F340402B4911F8008004F4803040B1D3
:102440002948B0FBF8F000FB07F502E0274807FB3E
:1024500000F52248406800F48000B0F5800F01D1FB
:10246000A94603E068000321B0FBF1F932E01B4804
:10247000046A04F44070B0F5807F05D104F00200D6
:1024800010B14FF4004918E004F44070B0F5007F3B
:1024900007D11248406A00F0020010B149F64049E5
:1024A0000BE004F44070B0F5407F06D10B480068A3
:1024B00000F4003008B14FF224490BE000F08CF931
:1024C00006494968C1F38131491C4900B0FBF1F963
:1024D00000E000BF00BF4846BDE8F08700100240A2
:1024E0004A5500085A55000800127A0000093D00BC
:1024F000F8B5044600260025207800F001000028E9
:102500006BD000274348C06900F0805070B900BF0D
:102510004048C06940F080503E49C8610846C069E3
:1025200000F08050009000BF00BF01273A480068CB
:1025300000F48070B0B93848006840F480703649C3
:102540000860FFF7A1FB064606E0FFF79DFB801B36
:10255000642801D90320F8BD2F48006800F480707A
:102560000028F2D02B48006A00F440752DB3A088F3
:1025700000F44070A84220D02648006A20F440753C
:10258000012026490860002008602248056205F005
:10259000010090B1FFF778FB064608E0FFF774FBF7
:1025A000801B41F28831884201D90320D3E71948C2
:1025B000006A00F002000028F0D01648006A20F4FB
:1025C00040706168084313490862012F04D108462E
:1025D000C06920F08050C86100BF207800F0020080
:1025E000022807D10B48406820F44040A168084306
:1025F00008494860207800F01000102807D10548ED
:10260000406820F48000E1680843024948600020E7
:10261000A1E7000000100240007000404004424268
:1026200070B504460D460CB9012070BD5A480068CB
:1026300000F00700A8420ED25748006820F00700BB
:102640002843554908600846006800F00700A84282
:1026500001D00120E9E7207800F0020002281DD116
:10266000207800F00400042805D14C48406840F46C
:10267000E0604A494860207800F00800082805D149
:102680004648406840F460504449486043484068C8
:1026900020F0F000A168084340494860207800F02D
:1026A000010078B36068012806D13C48006800F456
:1026B000003090B90120B8E76068022806D1374899
:1026C000006800F0007040B90120AEE733480068B0
:1026D00000F0020008B90120A7E73048406820F068
:1026E0000300616808432D494860FFF7CDFA0646AC
:1026F00009E0FFF7C9FA801B41F28831884202D90C
:10270000032092E707E02548406800F00C0061686C
:10271000B0EB810FEDD12048006800F00700A8421F
:102720000ED91D48006820F0070028431A490860A8
:102730000846006800F00700A84201D0012074E7B5
:10274000207800F00400042807D11448406820F4E1
:10275000E060E168084311494860207800F0080013
:10276000082808D10D48406820F46050216940EAEB
:10277000C1000A49486000F03FF808494968C1F3C0
:102780000311074A515CC8400649086006480068C2
:10279000FFF77EFD002048E70020024000100240C5
:1027A0005C55000880010020780100200148006885
:1027B000704700008001002000B5FFF7F7FF0449D3
:1027C0004968C1F30221034A515CC84000BD0000C2
:1027D000001002406C55000800B5FFF7E7FF044900
:1027E0004968C1F3C221034A515CC84000BD0000E2
:1027F000001002406C55000870B500210022002432
:1028000000230020134D696801F00C05F5B1042D7B
:1028100002D0082D19D101E00F4819E00F4DC1F386
:102820008346AB5D01F4803555B10A4D6D68C5F343
:1028300040450B4E725D084D5D43B5FBF2F402E07E
:10284000084D03FB05F4204602E000BF024800BF2C
:1028500000BF70BD0010024000127A003855000819
:102860004855000800093D00F8B504460CB90120A0
:10287000F8BD207800F00100002878D0F8484068C2
:1028800000F00C0004280CD0F548406800F00C0063
:10289000082811D1F248406800F48030B0F5803F3C
:1028A0000AD1EF48006800F4003000285FD060686B
:1028B00000285CD10120DBE700BF6068B0F5803FF5
:1028C00006D1E748006840F48030E549086028E018
:1028D000606858B9E248006820F48030E049086038
:1028E0000846006820F4802008601AE06068B0F5AF
:1028F000A02F0BD1DA48006840F48020D849086046
:102900000846006840F4803008600AE0D448006857
:1029100020F48030D24908600846006820F4802006
:10292000086000BF606888B1FFF7AEF9054606E0B1
:10293000FFF7AAF9401B642801D9032098E7C8488B
:10294000006800F400300028F2D010E0FFF79CF996
:10295000054606E0FFF798F9401B642801D90320DB
:1029600086E7BF48006800F400300028F2D12078E4
:1029700000F00200022857D1B948406800F00C006E
:1029800050B1B748406800F00C00082818D1B4488E
:10299000406800F4803098B9B148006800F0020047
:1029A00020B12069012801D0012061E7AC4800680E
:1029B00020F0F800616940EAC100A949086033E0ED
:1029C0002069E8B10120A7490860FFF75DF90546D5
:1029D00006E0FFF759F9401B022801D9032047E719
:1029E0009F48006800F002000028F2D09C48006870
:1029F00020F0F800616940EAC1009949086013E0DD
:102A0000002098490860FFF73FF9054606E0FFF708
:102A10003BF9401B022801D9032029E790480068B0
:102A200000F002000028F2D1207800F00800082809
:102A30002DD1A069B8B101208B490860FFF724F9B6
:102A4000054606E0FFF720F9401B022801D90320C4
:102A50000EE78348406A00F002000028F2D001200F
:102A600001F0D8F913E000207F490860FFF70CF966
:102A7000054606E0FFF708F9401B022801D90320AC
:102A8000F6E67748406A00F002000028F2D120788C
:102A900000F00400042873D100277148C06900F0D9
:102AA000805070B900BF6E48C06940F080506C49DA
:102AB000C8610846C06900F08050009000BF00BFA8
:102AC00001276A48006800F48070B0B96748006860
:102AD00040F4807065490860FFF7D6F8054606E0C7
:102AE000FFF7D2F8401B642801D90320C0E65F48F5
:102AF000006800F480700028F2D000BFE068012870
:102B000006D15748006A40F001005549086227E0A5
:102B1000E06858B95248006A20F001005049086244
:102B20000846006A20F00400086219E0E068052801
:102B30000BD14B48006A40F004004949086208463E
:102B4000006A40F0010008620AE04548006A20F08F
:102B50000100434908620846006A20F00400086248
:102B600000BFE068A0B1FFF78FF8054609E0FFF766
:102B70008BF8401B41F28831884202D9032077E666
:102B800022E03748006A00F002000028EFD012E08F
:102B9000FFF77AF8054608E0FFF776F8401B41F2A8
:102BA0008831884201D9032062E62D48006A00F08E
:102BB00002000028F0D1012F05D12948C06920F07A
:102BC00080502749C86100BFE069C8B32448406805
:102BD00000F00C00082860D0E069022848D10020ED
:102BE00020490866FFF750F8054606E0FFF74CF865
:102BF000401B022801D903203AE61948006800F07A
:102C000000700028F2D1206AB0F5803F07D1144847
:102C1000406820F40030A168084311494860D4E9B5
:102C2000080108430E49496821F4741108430C490E
:102C3000486001200B490866FFF726F8054607E0C3
:102C40003DE0FFF721F8401B022801D903200FE6E1
:102C50000348006800F000700028F2D02FE0000068
:102C600000100240000042428004424200700040D6
:102C7000002014490866FFF707F8054606E0FFF74D
:102C800003F8401B022801D90320F1E50E48006833
:102C900000F000700028F2D111E0E069012800D1B5
:102CA000E6E50948466806F48031206A814204D18D
:102CB00006F47011606A814201D00120D8E500203D
:102CC000D6E50000000042420010024070B5044604
:102CD0002546681EB0F1807F01D301200FE0681EF9
:102CE0004FF0E02148610F214FF0FF3001F06CFD03
:102CF00000204FF0E021886107200861002070BDAE
:102D000030B502460B4600BF92F83C00012801D1C5
:102D1000022030BD012082F83C0000BF022082F872
:102D20003D00106844681068816824F070041868D9
:102D3000044310684460104D1068A8420BD010681E
:102D4000B0F1804F07D00D4D1068A84203D00C4D54
:102D50001068A84205D121F080015868014310682D
:102D60008160012082F83D0000BF002082F83C0015
:102D700000BF00BFCDE70000002C01400004004070
:102D80000008004010B504460CB9012010BD94F8AD
:102D90003D0028B9002084F83C00204600F026F8C9
:102DA000022084F83D00211D206801F097F90120E0
:102DB00084F8460000BF84F83E0001213F20015501
:102DC000402001554120015500BF00BF012084F87B
:102DD000420043200155442001554520015500BFC4
:102DE000012084F83D000020D0E7000008B501680C
:102DF000B1F1804F0DD100BF0649C96941F0010111
:102E0000044AD1611146C96901F00101009100BF76
:102E100000BF08BD001002402DE9F04104460D46F8
:102E2000002700BF94F83C00012802D10220BDE831
:102E3000F081012084F83C0000BF022084F83D00AE
:102E40002068866826F0770626F47F46206886602C
:102E50002868502833D00CDC202850D004DC00280F
:102E60004BD0102851D149E0302849D040284CD1CE
:102E700039E060282DD0702807D0B0F5805F03D0EE
:102E8000B0F5005F41D10DE041E0D5E902136A6879
:102E9000206801F076F92068866846F07706206899
:102EA000866034E0D5E902136A68206801F069F9A8
:102EB0002068806840F480402168886027E0EA68E4
:102EC0006968206801F02EFA5021206801F064F949
:102ED0001DE0EA686968206801F037FA602120681F
:102EE00001F05AF913E0EA686968206801F01AFAFB
:102EF0004021206801F050F909E000BF00BF00BF89
:102F00002968206801F048F901E0012700BF00BFEF
:102F1000012084F83D0000BF002084F83C0000BF81
:102F2000384684E710B586B004460020029003902E
:102F3000049005902068B0F1804F16D100BF0C4876
:102F4000806940F004000A4988610846806900F001
:102F50000400019000BF00BF0720029002200390F0
:102F6000059002A90348FEF7F9FC06B010BD000069
:102F700000100240000801402DE9F04104460D46D2
:102F80001646002700BF94F83C00012802D1022019
:102F9000BDE8F081012084F83C0000BF36B1042E6A
:102FA0001BD0082E31D00C2E5ED145E0294620687A
:102FB00001F0FCF82068806940F008002168886111
:102FC0002068806920F00400216888612068806999
:102FD000296908432168886148E02946206801F092
:102FE00015F92068806940F40060216888612068D4
:102FF000806920F48060216888612068806929697F
:1030000040EA01202168886130E02946206801F00B
:1030100031F92068C06940F008002168C861206863
:10302000C06920F004002168C8612068C06929696E
:1030300008432168C86119E02946206801F04EF96B
:103040002068C06940F400602168C8612068C069D8
:1030500020F480602168C8612068C069296940EA5D
:1030600001202168C86101E0012700BF00BF00BF47
:10307000002084F83C0000BF384689E710B50446BC
:103080000CB9012010BD94F83D0028B9002084F847
:103090003C00204600F025F8022084F83D00211D68
:1030A000206801F01BF8012084F8460000BF84F876
:1030B0003E0001213F20015540200155412001558E
:1030C00000BF00BF012084F8420043200155442086
:1030D00001554520015500BF012084F83D00002026
:1030E000D0E7704770B504460D4615B994F83E0018
:1030F0000BE0042D02D13F20005D06E0082D02D137
:103100004020005D01E04120005D012801D0012048
:1031100070BD1DB9022084F83E000EE0042D03D1DD
:1031200002213F20015508E0082D03D10221402053
:10313000015502E002214120015501222946206863
:1031400001F00EF819492068884201D1012000E001
:10315000002028B12068406C40F400402168486499
:103160001249206888420BD02068B0F1804F07D008
:103170000F492068884203D00E49206888420CD14C
:103180002068806800F00706062E0CD020680068D2
:1031900040F001002168086005E02068006840F008
:1031A0000100216808600020B2E70000002C014007
:1031B00000040040000800407047704710B5044606
:1031C0000CB9012010BDA06900B100E000BF94F867
:1031D000410028B9002084F84000204600F02AF879
:1031E000242084F841002068C06820F40050216841
:1031F000C860204601F09AF92068006920F49040E8
:10320000216808612068406920F02A00216848612F
:103210002068C06840F400502168C86000206064E5
:10322000202084F8410084F842000020606300BF41
:10323000C8E7000010B586B0044600200290039055
:103240000490059027492068884249D100BF26484C
:10325000806940F48040244988610846806900F410
:103260008040019000BF00BF00BF0846806940F069
:10327000040088610846806900F00400019000BFE6
:1032800000BF48150290022003900320059002A978
:103290001648FEF763FB4FF4806002900020039015
:1032A000049002A91148FEF759FB11481149086022
:1032B0000020486000210F4881608021C16000210A
:1032C00001614161202181610021C161FEF7B0FAF5
:1032D00008B1FDF701FE00BF0648E063446200BF8D
:1032E00006B010BD00380140001002400008014047
:1032F00058000240BC03002070B504460D46164637
:1033000094F8420020280BD105B10EB9012070BD00
:103310000020206332462946204601F085F9F6E771
:103320000220F4E7704770472DE9F84F04460E4637
:10333000174699464FF0000A94F84100202850D1D2
:1033400006B117B90120BDE8F88F00206064212084
:1033500084F84100FEF798FC8246A784E784A068C1
:10336000B0F5805F04D1206910B90025B04602E0B5
:1033700035464FF000081EE05346002280212046CB
:10338000CDF8009001F0B4F920B1202084F841007C
:103390000320D8E745B9B8F80000C0F30800216859
:1033A000486008F1020803E02878216848606D1C35
:1033B000E08C401EE084E08C0028DDD153460022E2
:1033C00040212046CDF8009001F092F920B1202054
:1033D00084F841000320B6E7202084F84100002053
:1033E000B1E70220AFE700BFFEE701460868406989
:1033F000C0F38020B0B16FF480600A685061002093
:103400000863202081F83D00002081F83E00086C10
:1034100040F00400086400BF002081F83C0000BFB9
:10342000012070470020FCE72DE9F84304460F46D1
:1034300015469946DDE908862068006840F48060FA
:10344000216808602068006840F480702168086086
:10345000434600224FF001112046009600F094F8F8
:1034600060B12068006800F48070B0F5807F02D100
:103470004FF4007020640320BDE8F88307F0FE00DD
:1034800021680861334642463E49204600F0DBF899
:1034900008B10120F0E700BF0020009020684069DB
:1034A000009020688069009000BF00BF324641460E
:1034B000204600F08AF950B1206C042805D120681C
:1034C000006840F40070216808600120D4E7B9F179
:1034D000010F03D1E8B22168086117E0C5F30720A6
:1034E0002168086132464146204600F06EF950B12D
:1034F000206C042805D12068006840F40070216821
:1035000008600120B8E7E8B2216808613246414608
:10351000204600F05AF950B1206C042805D12068EB
:10352000006840F40070216808600120A4E720686A
:10353000006840F4807021680860434600224FF024
:1035400001112046009600F01FF858B1206800686D
:1035500000F48070B0F5807F02D14FF400702064D9
:10356000032089E7F8B240F0010021680861334682
:1035700042460449204600F066F808B101207BE786
:10358000002079E7020001002DE9F04104460D46D4
:1035900017461E46DDF8188038E0701CA8B3FEF709
:1035A00073FBA0EB0800B04200D876BBC5F3074020
:1035B00001280AD120684069A9B20840A9B288420E
:1035C00001D101200BE0002009E020688069A9B248
:1035D0000840A9B2884201D1012000E00020B84291
:1035E00014D100202063202084F83D00002084F8BE
:1035F0003E00206C40F02000206400BF002084F8D2
:103600003C0000BF0120BDE8F081FFE7C5F30740A3
:1036100001280AD120684069A9B20840A9B28842AD
:1036200001D101200BE0002009E020688069A9B2E7
:103630000840A9B2884201D1012000E00020B84230
:10364000ABD00020DFE72DE9F04104460D461646D9
:103650001F4658E020684069C0F38020E8B1206828
:10366000006840F40070216808606FF48060216891
:10367000486100202063202084F83D00002084F869
:103680003E00206C40F00400206400BF002084F85D
:103690003C0000BF0120BDE8F081701C90B3FEF734
:1036A000F3FAC01BB04200D866BBC5F3074001283F
:1036B0000AD120684069A9B20840A9B2884201D164
:1036C00001200BE0002009E020688069A9B20840D1
:1036D000A9B2884201D1012000E0002090B9002069
:1036E0002063202084F83D00002084F83E00206CF8
:1036F00040F02000206400BF002084F83C0000BFA0
:103700000120C8E7FFE7C5F3074001280AD1206878
:103710004069A9B20840A9B2884201D101200BE05A
:10372000002009E020688069A9B20840A9B2884257
:1037300001D1012000E0002000288BD00020AAE762
:1037400070B504460D46164637E020684069C0F360
:103750000010A0B16FF010002168486100202063C4
:10376000202084F83D00002084F83E00206C206476
:1037700000BF002084F83C0000BF012070BDFEF7B0
:1037800083FA801BA84200D8BDB920684069C0F305
:10379000801090B900202063202084F83D00002094
:1037A00084F83E00206C40F02000206400BF002020
:1037B00084F83C0000BF0120E0E720684069C0F3C6
:1037C00080100028C1D00020D8E770B504460D460F
:1037D000164625E02046FFF708FE08B1012070BD1F
:1037E000681CE8B1FEF750FA801BA84200D8BDB9AA
:1037F00020684069C0F3C01090B9002020632020E9
:1038000084F83D00002084F83E00206C40F0200049
:10381000206400BF002084F83C0000BF0120DEE7E8
:1038200020684069C0F3C0100028D3D00020D6E73C
:103830002DE9FF5F04460E464FF000094FF0E020EF
:103840008569A068A84213D9324933480068FCF75B
:1038500015FD8346A168481BFCF7EDFE5946039011
:10386000FCF70CFD82462D49FCF7D6FC81461FE093
:10387000284929480068FCF701FD0390A068FCF77F
:10388000DAFE02902846FCF7D6FE00902248016836
:103890000098FCF7BEFC01900299FCF765FC83469A
:1038A0000399FCF7EBFC82461C49FCF7B5FC81460A
:1038B00000214846FCF738FF04D919494846FCF76F
:1038C0003DFF05D26660A560304604B0BDE8F09FBC
:1038D00049462068FCF748FC824651462068FCF7C0
:1038E000CDFC074639464FF07E50FCF78FFC8346EF
:1038F0003146FCF791FC824638466168FCF78CFC47
:1039000051460390FCF730FC8046C4F80480A56063
:103910004046DAE700007A44DC0000206F12833A68
:103920000AD7A33B2DE9F84F05460C4616461F461D
:103930001148FDF7FBFA009010480068FCF772FE92
:1039400083460099FCF768FC82462946FCF761FC37
:1039500080464146304600F081F9814684F0004AB5
:1039600022465146484601F0D1F88146394648463C
:1039700000F02AFBBDE8F88FD40100207C00002075
:103980000EB5002000900190029018481849086078
:103990008115174881600021017301754FF4602182
:1039A000C161002012494860022111480161FDF700
:1039B000B9FC08B1FDF790FA0820009001200190B1
:1039C0000020029069460A48FDF7F8FB08B1FDF7B0
:1039D00083FA092000900220019069460448FDF70F
:1039E000EDFB08B1FDF778FA0EBD000000240140A0
:1039F0006402002008B500BF0E48406940F0010095
:103A00000C4948610846406900F00100009000BF81
:103A100000BF002211460B20FEF79AFC0B20FEF798
:103A200087FC002211460F20FEF792FC0F20FEF7C4
:103A30007FFC08BD0010024000B585B00020019059
:103A400002900390049000BF1D48806940F0200060
:103A50001B4988610846806900F02000009000BF83
:103A600000BF00BF0846806940F004008861084636
:103A7000806900F00400009000BF00BF00BF08464E
:103A8000806940F0080088610846806900F00800FD
:103A9000009000BF00BF002289150A48FEF7EEF82B
:103AA0004FF48070019001200290002003900220CA
:103AB000049001A90348FDF751FF05B000BD0000C7
:103AC000001002400008014010B50B480B49086087
:103AD0000B484860002109488160C1604FF4804173
:103AE0000161002141618161C1610162FEF7D2F88B
:103AF00008B1FDF7F1F910BD00580040D8020020D0
:103B0000A086010000B58DB0002009900A900B90AE
:103B10000C90079008901C216846FCF71AFB4FF0A8
:103B200080402849086000204860002125488160C5
:103B300041F29311C1600021016180218161FFF791
:103B400021F908B1FDF7C8F94FF48050099009A98F
:103B50001C48FFF761F908B1FDF7BEF91948FFF7F6
:103B60008DFA08B1FDF7B8F900200790089007A971
:103B70001448FFF7C5F808B1FDF7AEF960200090D2
:103B80000020019002900490002269460D48FFF742
:103B9000F3F908B1FDF7A0F9042269460948FFF7D7
:103BA000EBF908B1FDF798F9082269460548FFF7D7
:103BB000E3F908B1FDF790F90248FFF7B3F90DB04A
:103BC00000BD00002C03002010B50B480B49086015
:103BD0004FF4E1304860002108488160C160016114
:103BE0000C21416100218161C161FFF7E7FA08B151
:103BF000FDF772F910BD0000003801407403002089
:103C000000BFFEE700B585B0002001900290039050
:103C1000049000BF0E48806940F004000C498861A0
:103C20000846806900F00400009000BF00BF8815BE
:103C30000190012002900320049001A90548FDF79E
:103C40008DFE012211020348FEF718F805B000BDF1
:103C5000001002400008014000BFFEE72DE9F04FD0
:103C60008BB004460E46002009904FF0E020856995
:103C7000A069A8421BD2434943480068FCF7FEFAFA
:103C80000490A169681AFCF7D6FC03900499FCF72C
:103C9000F5FA0590FCF701FD3C4A3D4BCDE90601E4
:103CA000FCF7D1FB0746FCF723FD099027E03549D7
:103CB00035480068FCF7E2FA04902846FCF7BBFCA4
:103CC0000290A069FCF7B7FC00902F4801680098AB
:103CD000FCF79FFA01900299FCF746FA03900499C9
:103CE000FCF7CCFA0590FCF7D8FC284A284BCDE924
:103CF0000601FCF7A8FB0746FCF7FAFC09903146E1
:103D00002068FCF789FA08904FF07C516068FCF756
:103D100083FA07900999FCF77FFA80463146FCF751
:103D20007BFA07462169FCF71FFA8146194A1A49AE
:103D3000484600F033FE81463046E168FCF766FAFB
:103D40008046A168FCF768FA07460999FCF796FADD
:103D5000824649460898FCF707FA07465146FCF7A1
:103D600003FA83460B4A0C49584600F017FE834677
:103D7000E660C4F81090C4F814B0A56158460BB0C2
:103D8000BDE8F08F00007A44DC000020FCA9F1D2ED
:103D90004D62503F0000A0400000A0C010B501607F
:103DA000426083600024C46004614461846110BD8A
:103DB00070B504464FF07E512046FCF727FA0546C1
:103DC000FCF757FC01490968486370BD2C030020CB
:103DD00070B504464FF07E512046FCF717FA0546B1
:103DE000FCF747FC01490968886370BD2C0300207B
:103DF00070B504464FF07E512046FCF707FA0546A1
:103E0000FCF737FC01490968C86370BD2C0300202A
:103E10007047000008B508490968C9084FF47A726C
:103E2000B1FBF2F14143009100BF00BF00994A1E6F
:103E300000920029F9D108BD8001002070470000E0
:103E40002DE9F05F04460D4691461E463046FCF7CC
:103E500049FE804685F0004741463846FCF7DCF9CC
:103E600020613046FCF7E8FD07462946FCF7D4F907
:103E700060614FF0804122480068FCF7FFF9074677
:103E80002169FCF771F960604FF080411C480068BF
:103E9000FCF7F4F982461B486169FCF7BDF98346DB
:103EA0002169FCF7B3F980464FF08041FCF7E6F951
:103EB00007465146FCF758F9A0604FF08041104882
:103EC0000068FCF7DBF982460E486169FCF7A4F94B
:103ED00083462169FCF748F980F000484FF08041A3
:103EE0004046FCF7CBF907465146FCF73DF9E06048
:103EF0002046211D0EC900F007F8BDE8F09F000024
:103F0000700000203ACD933F2DE9F04104460D4664
:103F100016461F46294800210268284600F0F6FD93
:103F20006060264800210268304600F0EFFDA06086
:103F3000224800210268384600F0E8FDE060204990
:103F400060680968FCF79AF980464FF07E520021BC
:103F500000F0DCFDA0611A49A0680968FCF78EF941
:103F600080464FF07E52002100F0D0FDE061144900
:103F7000E0680968FCF782F980464FF07E52002124
:103F800000F0C4FD20620F49A0690968FCF744F9FC
:103F90008046FFF70DFF0B49E0690968FCF73CF923
:103FA0008046FFF715FF0749206A0968FCF734F9D6
:103FB0008046FFF71DFFBDE8F08100006C00002087
:103FC00070000020840000202DE9F84F81460C4647
:103FD0001948FDF705F8834659461848FFF728FCAD
:103FE00000904846FCF759FB07460022144BFCF7AB
:103FF0009CFA0546FCF77CFB814648460099FCF795
:1040000005F906460F480068FCF70CFB07463146E9
:10401000FCF702F9054629462046FFF71FFE8246B7
:10402000094800F0A3FE05462B46002251460648EB
:10403000FFF706FFBDE8F88FD40100200000002044
:1040400000408F407C0000208C01002010B5FEF75E
:10405000FFF810BD00B593B0282109A8FCF779F846
:10406000142104A8FCF775F800200090019002903C
:1040700003900120099000040A9000200B90012079
:104080000D9002201090C10311914FF4E011129194
:1040900009A8FEF7E9FB08B1FCF71EFF0F2004900A
:1040A00002200590002006904FF4806007900020C9
:1040B0000890022104A8FEF7B3FA08B1FCF70CFF40
:1040C00002200090800302906846FEF711FA08B1C2
:1040D000FCF702FF13B000BD7047000010B5026886
:1040E0001C4B984208D0B0F1804F05D01A4B984233
:1040F00002D01A4B984203D122F070024B681A4347
:10410000144B984208D0B0F1804F05D0124B984222
:1041100002D0124B984203D122F44072CB681A436A
:1041200022F080034C6943EA040202608B68C36298
:104130000B688362074B984201D10B69036301232B
:104140004361036903F001031BB1036923F0010319
:10415000036110BD002C0140000400400008004035
:1041600030B501F01F05012404FA05F3046A9C43ED
:104170000462046A01F01F0502FA05F52C4304628B
:1041800030BD30B50C46816821F47F4142EA0325F9
:1041900025432943816030BD0A46816821F07001C2
:1041A00042F00703194381607047000030B5026A8E
:1041B000056A25F0010505624368846924F07004EE
:1041C00024F003040D682C4322F002028D682A4378
:1041D0000D4DA84206D100BF22F00802CD682A4347
:1041E00022F00402084DA84207D123F4807323F47F
:1041F00000734D692B438D692B43436084614D6887
:104200004563026230BD0000002C014030B5026AF7
:10421000056A25F0100505624368846924F4E044CA
:1042200024F440740D6844EA052422F020028D68CD
:1042300042EA05120E4DA84207D100BF22F08002CB
:10424000CD6842EA051222F04002094DA84209D188
:1042500023F4806323F400634D6943EA85038D6989
:1042600043EA8503436084614D688563026230BD23
:10427000002C014030B5026A056A25F4807505629C
:104280004368C46924F0700424F003040D682C43CF
:1042900022F400728D6842EA05220F4DA84207D130
:1042A00000BF22F40062CD6842EA052222F4806257
:1042B000094DA84209D123F4805323F400534D69DA
:1042C00043EA05138D6943EA05134360C4614D68F1
:1042D000C563026230BD0000002C014030B5036AA6
:1042E000056A25F4805505624468C26922F4E042FB
:1042F00022F440720D6842EA052223F400538D68CF
:1043000043EA0533064DA84204D124F480444D69A4
:1043100044EA85144460C2614D680564036230BD9F
:10432000002C014030B50B461446026A056A25F0A0
:1043300001050562816921F0F00141EA041122F0D2
:104340000A021A438161026230BD30B50B46144641
:10435000026A056A25F010050562816921F4704141
:1043600041EA043122F0A00242EA031281610262B2
:1043700030BD70B506460025746A20684069C0F3F8
:10438000C01594F84100212805D125B10020E08412
:10439000204600F0B8F820684069C0F3801594F812
:1043A0004200222805D125B10020E085204600F0FA
:1043B00074F8606C40F0100060642046FEF7FDFE6B
:1043C00070BD70B505466C6A2868006800F0200072
:1043D000002842D1E08500BF00BF21680C3151E8C0
:1043E000001F21F4807021680C3141E80002002A8E
:1043F000F3D100BF00BF00BF2168143151E8001F96
:1044000021F001002168143141E80002002AF3D1B3
:1044100000BF00BF00BF2168143151E8001F21F028
:1044200040002168143141E80002002AF3D100BFA6
:10443000202084F84200206B01280ED100BF00BF6D
:1044400021680C3151E8001F21F0100021680C3167
:1044500041E80002002AF3D100BF00206063206B16
:10446000012804D1A18D2046FEF7A6FE02E02046D9
:10447000FEF758FF70BD70B505466C6A0120606399
:10448000206B012805D1A08D41082046FEF794FE3F
:1044900002E02046FEF747FF70BD00BF00BF026884
:1044A0000C3252E8002F22F4907102680C3242E87C
:1044B0000013002BF3D100BF00BF00BF026814320D
:1044C00052E8002F22F001010268143242E8001382
:1044D000002BF3D100BF016B01290ED100BF00BF3B
:1044E00002680C3252E8002F22F0100102680C32F0
:1044F00042E80013002BF3D100BF202180F84210C6
:1045000000210163704700BF00BF02680C3252E80F
:10451000002F22F0C00102680C3242E80013002B89
:10452000F3D100BF202180F84110704770B50446D8
:104530002168096921F44051E26811432268116140
:104540002269A1681143626941EA02052168C968CC
:1045500041F20C62914329432268D1602168496984
:1045600021F44071A2691143226851612D4A2168EA
:10457000914202D1FEF730F901E0FEF71DF900EBA0
:10458000C00101EB001162689200B1FBF2F100EB97
:10459000C00202EB001263689B00B2FBF3F26423DB
:1045A000B2FBF3F202EBC20303EB0212A1EB8201B6
:1045B000322202EB01116422B1FBF2F101F0F001B1
:1045C00000EBC00202EB001263689B00B2FBF3F247
:1045D0006423B2FBF3F201EB021200EBC00101EB2A
:1045E000001163689B00B1FBF3F100EBC00303EB28
:1045F00000136668B600B3FBF6F36426B3FBF6F36C
:1046000003EBC30606EB0313A1EB8301322303EB99
:1046100001116423B1FBF3F101F00F011144226891
:10462000916070BD0038014077B581B004461546F1
:104630000298A062A58500206064222084F84200D0
:104640002848E16B88622848E16BC8622748E16B23
:1046500008630020E16B486302AE32682368191DCD
:104660002B46E06BFDF718F900BF00200090206892
:104670000068009020684068009000BF00BF20697B
:1046800070B100BF00BF21680C3151E8001F41F438
:10469000807021680C3141E80002002AF3D100BF8C
:1046A00000BF00BF2168143151E8001F41F0010034
:1046B0002168143141E80002002AF3D100BF00BF95
:1046C00000BF2168143151E8001F41F0400021680B
:1046D000143141E80002002AF3D100BF002004B0E9
:1046E00070BD0000C343000877440008734300080E
:1046F0002DE9F84304460D4617469846089E31E0DA
:10470000701C70B3FDF7C0FAA0EB0800B04200D8EF
:1047100016B90320BDE8F8832068C06800F00400E3
:10472000F8B1802D1ED0402D1CD020680068C0F349
:10473000C000B0B100BF0020009020680068009069
:1047400020684068009000BF00BF2046FFF7A5FE2C
:104750000820606400BF002084F8400000BF0120F2
:10476000D8E7FFE7206800682840A84201D101206F
:1047700000E00020B842C3D00020CBE700BFFEE736
:10478000014A024900F01EB9314E000884010020A0
:104790004100080218BF04200A0E18BF40F00100B3
:1047A0004FF07F4232EA010108BF40F002000128C9
:1047B00008BF05207047000002480068C0F30220CF
:1047C000704700000CED00E010B5002804DB0A077C
:1047D000130E054A135406E00A07140E034A00F0AC
:1047E0000F031B1FD45410BD00E400E018ED00E0DF
:1047F0000121FCF705B800210846FBF73FBD6FF02B
:104800005E010807FBF7FCBF2DE9F04D0D4614468D
:104810004FF07F41B1EB440F9EBF4FF0FF31296055
:10482000BDE8F08D4FF0004040EA0421C4F3C750CA
:10483000783810F01F024A4B4FEA601CC2F1200684
:104840007B44C4F3C750A0F178004FEA601003EB3B
:10485000800053F82C3008BFD0E901C612D0D0F840
:1048600004C093402CFA06F73B4387680CFA02FC1D
:1048700027FA06F8C06807FA02F2F0404CEA080C82
:1048800042EA0006A3FB0132ACFB01C0A6FB0161BA
:1048900001EB0C068E4234BF4FF0010C4FF0000CC0
:1048A000C1186144BCF1000F02D0814202D903E07B
:1048B000814201D2012000E00020104400F12002DA
:1048C0004FEA92188006CA0C40EA42304F03C5F8FE
:1048D0000080FBF7A7FE82463846FBF7ACFE6FF080
:1048E0001201FBF78DFF07463046FBF7A4FE6FF081
:1048F0002501FBF785FF834639465046FBF734FC1C
:104900005946FBF731FC00F500666FF30B06514684
:104910003046FBF77BFC3946FBF778FC5946FBF742
:1049200078FC1049FBF778FC07460F493046FBF747
:1049300073FC3946FBF718FC07460C493046FBF779
:104940006BFC3946FBF710FC14F0004F08BFBDE8C4
:10495000F08DC8F1805180F000402960BDE8F08DF5
:10496000300D0000DB0FC92F22AAFD290000C92F3E
:1049700002E008C8121F08C1002AFAD17047704728
:10498000002001E001C1121F002AFBD17047000086
:1049900001490860704700008801002070B5054695
:1049A0000E46144631462846FBF7BEFE01D230467D
:1049B00070BD21462846FBF7C1FE01D22046F7E72D
:1049C0002846F5E72DE9F04116460F460446002536
:1049D00003E03946B047641C6D1C20780028F8D1EC
:1049E0002846BDE8F08100002DE9F04104464FF073
:1049F0000E4000EB4400B0F1506F204655D84FF008
:104A0000FC41B1EB440F1CD224F000404FF07E512A
:104A1000FBF7FFFB4FF0FF31FBF7F2FE054600F01E
:104A200075FD14F0004F1DBF2F4F304E80F0004039
:104A30002F4F08BF2F4E4FF04041FBF7EDFB0446D0
:104A400005E000273E460146FBF7E6FB05462A49FE
:104A50002846FBF7E1FB2949FBF786FB2946FBF7D4
:104A6000DBFB2749FBF780FB2946FBF7D5FB2549F4
:104A7000FBF77AFB2946FBF7CFFB2349FBF774FBD7
:104A8000804629462046FBF7C7FB4146FBF7C4FB9F
:104A9000054631462046FBF767FB2946FBF764FBDA
:104AA0003946BDE8F041FBF75FBB4FF0E441B1EBA5
:104AB000440F08D9FFF76CFE042808BFFFF79FFEDC
:104AC0002046BDE8F0814FF07F41B1EB440F03D2A7
:104AD000BDE8F041FFF78CBE0120FFF759FFBDE8AC
:104AE000F041FFF788BE00000000C9BF22AAFDB94F
:104AF0000000C93F22AAFD3924FE1C3DC78AD83CCC
:104B00001E67383D1B93993DAFAA2A3E70B50546F6
:104B10000E46144631462846FBF706FE01D23046C3
:104B200070BD21462846FBF709FE01D22046F7E773
:104B30002846F5E72DE9F04104460D4600F086F9D8
:104B400000F085F900F07EFA1D4801681D480068F4
:104B500000F038FA1C4908601C4801681A480068CF
:104B600000F030FA1A4908601A4E314618480068B9
:104B7000FBF784FB0746FFF737FF17490860174824
:104B8000016815480068FBF747FB07462168FBF7FB
:104B9000EBFA2060124A13492068FFF7FFFE2060FD
:104BA00000212868FBF7C0FD03D2286880F0004090
:104BB00028600D4800680D490860BDE8F0810000DC
:104BC00024010020380100204001002020010020A5
:104BD00044010020CDCC1C415C010020500100208C
:104BE00033334340000010402C01002030010020EE
:104BF0002DE9F843044602464F486946B0EB420FA0
:104C000009D94FF0E640B0EB420F94BF00204FF0BF
:104C1000FF30009030E0494B22F00040834271D9D0
:104C200047492046FBF7F8FAFBF7F6FD8046FBF70D
:104C300007FD00F00300009042494046FBF7ECFA04
:104C4000054641494046FBF7E7FA06463F494046DC
:104C5000FBF7E2FA07463E494046FBF7DDFA2146FC
:104C6000FBF7D7FA3946FBF7D1FA3146FBF7CEFA14
:104C70002946FBF7CBFA04462546009C002C45DB71
:104C8000294614F0010F08461CD0FBF7C5FA06466A
:104C90003049FBF7C1FA3049FBF7BBFA3146FBF765
:104CA000BBFA2E49FBF760FA3146FBF7B5FA294605
:104CB000FBF7B2FA2946FBF757FA14F0020F1CD0A3
:104CC000BDE8F883FBF7A8FA05462549FBF7A4FAE7
:104CD0002449FBF749FA2946FBF79EFA2249FBF7DC
:104CE00043FA2946FBF798FA4FF07E51FBF73CFA5E
:104CF00014F0020F08BFBDE8F88380F00040BDE863
:104D0000F883FFE71046FFF77FFDB4E76800B0F1D6
:104D10007F4F3CBF4FF07E50BDE8F88307D14FF086
:104D20000100FFF735FEBDE8F843FFF764BD2846F4
:104D3000BDE8F843FFF75CBDB61F927E490E4946B9
:104D400083F9223F1A61342C0020A23300A0FD39E0
:104D50000000C93F336D4C39DA82083CA0AA2ABE54
:104D6000B93AB2BACA9F2A3DDDFFFFBE2DE9F0472E
:104D7000824610480068FBF755FC07460E4800685D
:104D8000FBF750FC80460D48FCF708F98146414688
:104D9000FBF742FA06463946FBF73EFA0546084855
:104DA00001682846FBF732FA044600F0F5F8BDE842
:104DB000F08700007C00002078000020D401002053
:104DC0007400002070B5054620F00040C0F1FF409F
:104DD0000C46C00F05D124F00040C0F1FF40C00FC9
:104DE00017D02846FBF736FD6FEAD05111F0FF0FC0
:104DF00008BF70BDE917B1EBE07F08BF70BD014689
:104E000064F31E01BDE870400A4601461046FBF7F8
:104E100000BA4FF07F40B0EB450F18BF5FEA440087
:104E2000DFD10120FFF7B4FDBDE87040FFF7E3BC20
:104E300013B50C464FF6FF73012269460248FEF790
:104E400073FA00981CBD000074030020704770477F
:104E5000FDF70AFAFFF7FEF8FEF7EEFDFEF7CAFDD2
:104E6000FEF732FEFEF74EFEFEF7AEFEFEF788FDC1
:104E70004FF0E0214869FBF7DEFB3549086000236D
:104E8000344A35493548FEF789FF00231A4634492C
:104E90003448FEF783FF0023334A4FF07E513348F6
:104EA000FEF77CFFFEF7AEFE3148FCF719F831A0A3
:104EB000FFF766FC6420FCF73DFD06222E492F48D3
:104EC000FEF71AFA42E02E480068B8BB2A4800787C
:104ED000AA2828D128484079FF2824D12649897852
:104EE000254A527841EA022108B2FBF79BFB0446AF
:104EF0001D49FBF7C3F9234908601F4909791E4A78
:104F0000D27841EA022108B2FBF78CFB044616492D
:104F1000FBF7B4F91C4908601748002101604160A3
:104F200001201A49086019480068012806D118496B
:104F30001848FFF7FFFD002014490860074B094A95
:104F40001348016813480068FEF7ECFCBBE700005B
:104F5000DC000020000020420000A04010020020E1
:104F60000000A0412C0200200000C842480200209E
:104F700000004041310A0000F400002074030020CA
:104F8000080100202C01002028010020FC00002046
:104F9000F0000020EC00002070B5044608492046CF
:104FA000FFF710FF054600212846FBF7C7FB01D895
:104FB000284670BD02492846FBF7D6F8F9E70000FD
:104FC000DB0FC9402DE9FC5F06460F4639463046E7
:104FD000FBF71CF904461948C1682046FBF716F98F
:104FE00083461648C1685846FBF710F901901348EC
:104FF00081680198FBF710F98146104948682146FD
:10500000FBF70AF90D49019008685946FBF704F9C6
:1050100000900199FBF7A8F882464946FBF7A4F8EF
:105020008046414606480068FBF79EF8054603485F
:10503000C460034805602846BDE8FC9F0C010020C1
:10504000700100202DE9F04F8BB0BE484068BE498A
:1050500008604FF0E020D0F818A0BC4800688245F6
:1050600016DDBB49BB480068FBF708F90546B749A0
:105070000968AAEB0100FBF7D5FA06462946FBF7BB
:10508000FDF80446B449FBF7C7F8B449086021E0CD
:10509000AF49B0480068FBF7F1F807465046FBF708
:1050A000C1FA8046A9480068FBF7BCFA8146A948C6
:1050B00001684846FBF7ADF806464146FBF754F851
:1050C00005463946FBF7DAF80446A349FBF7A4F88E
:1050D000A24908609C480168A1480068FBF796F85F
:1050E000A04908600021A0480068FBF71DFB3FD2E3
:1050F00000219C480068FBF721FB39D29A480068E0
:10510000FBF7CBFACDE9060194480068FBF7C5FA36
:1051100004460D4693480068FFF76AFD01909348E6
:1051200001680198FBF778F802908E48006800F05B
:1051300029F980F0004B58460299FBF715F80390C7
:10514000FBF7ABFA06468A4A8A4BFBF77CF98046A6
:1051500022462B46FBF777F9CDE90401DDE906236A
:10516000FBF7CAF8CDE90801FBF7C2FA82490860EB
:1051700000217D480068FBF7D7FA3DD2002179482D
:105180000068FBF7D1FA37D277480068FBF785FA59
:1051900004460D4671480068FBF77FFACDE9080127
:1051A00070480068FFF724FD01907048016801987D
:1051B000FBF732F803906B48006800F0E3F80290C8
:1051C0000399FAF7D1FF8346FBF767FA684A694B00
:1051D000CDE90401FBF737F9CDE90601DDE9082344
:1051E000FBF731F9064622462B46FBF785F8804649
:1051F000FBF77EFA6049086000215B480068FBF716
:105200009DFA3FD2002157480068FBF797FA39D240
:1052100055480068FBF741FACDE908014F4800689E
:10522000FBF73BFACDE904014E480068FFF7E0FCCC
:1052300001904E4801680198FAF7EEFF814649480F
:10524000006800F09FF880F0004B49465846FAF796
:10525000DDFF8046FBF721FA0646454A454BFBF742
:10526000F2F8CDE90201DDE90423FBF7ECF8CDE922
:105270000601DDE90823FBF73FF80446FBF738FA9F
:105280003D490860002138480068FBF757FA3DD2D5
:10529000002134480068FBF747FA37D232480068EB
:1052A000FBF7FBF904460D462C480068FBF7F5F9BF
:1052B000CDE904012B480068FFF79AFC01902B48C8
:1052C00001680198FAF7A8FF83462648006800F0B5
:1052D00059F859460290FAF799FF0390FBF7DDF968
:1052E0008046234A234BFBF7AEF80646DDE904234C
:1052F000FBF7A9F822462B46CDE90601FAF7FCFF99
:10530000CDE90801FBF7F4F91B490860164801686C
:1053100019480068FAF728FF06464FF08041FAF76F
:10532000ADFF05460D4801682846FAF775FF0446AB
:10533000124801682046FAF717FF114908600BB0C0
:10534000BDE8F08FD4010020600100206C01002036
:1053500000007A44DC000020BD378635680100205B
:1053600058010020640100202801002034010020A1
:105370005C8FC2F5285CEF3F200100202C0100204B
:10538000240100202DE9F8430446024652486946AC
:10539000B0EB420F09D94FF0E640B0EB420F94BF9B
:1053A00000204FF0FF30009030E04C4B22F00040E6
:1053B000834271D94A492046FAF72EFFFBF72CFAAF
:1053C0008046FBF73DF900F0030000904549404658
:1053D000FAF722FF054644494046FAF71DFF064604
:1053E00042494046FAF718FF074641494046FAF756
:1053F00013FF2146FAF70DFF3946FAF707FF31464A
:10540000FAF704FF2946FAF701FF04462546009CF7
:10541000002C45DB294614F0010F08461ED0FAF790
:10542000FBFE05463349FAF7F7FE3349FAF79CFECF
:105430002946FAF7F1FE3149FAF796FE2946FAF7BE
:10544000EBFE4FF07E51FAF78FFE14F0020F08BF0B
:10545000BDE8F88380F00040BDE8F883FAF7DCFE91
:1054600006462749FAF7D8FE2649FAF7D2FE314612
:10547000FAF7D2FE2449FAF777FE3146FAF7CCFE66
:105480002946FAF7C9FE2946FAF76EFE14F0020F14
:10549000E0D1BDE8F883FFE71046FFF7B5F9B4E7C0
:1054A0006800B0F17F4F09D22846FFF771F9042850
:1054B00008BFFFF7A4F92846BDE8F88306D101200C
:1054C000FFF766FABDE8F843FFF795B92846BDE84F
:1054D000F843FFF78DB90000B61F927E490E49468A
:1054E00083F9223F1A61342C0020A23300A0FD3939
:1054F0000000C93FB93AB2BACA9F2A3DDDFFFFBEDC
:10550000336D4C39DA82083CA0AA2ABE70B5054634
:10551000FBF738FA044620F00040C0F1FF40C00F0E
:1055200008D025F00040C0F1FF40C00F04BF0120AB
:10553000FFF72EFA204670BD02030405060708098E
:105540000A0B0C0D0E0F10100102020304050607D2
:1055500008090A0B0C0D0E0F1010010200000000CC
:105560000000000001020304060708090000000013
:1055700001020304000000006E83F9A22915444EC5
:10558000D15727FCC0DD34F5999562DB4190433C4F
:10559000AB6351FE00000000920E493CB10AC93CC9
:1055A0002BC3163D2EFB483D752B7B3D04A9963D34
:1055B00080B6AF3D36BDC83D2FBCE13D73B2FA3D6C
:1055C00087CF093E8340163EB5AB223EA2102F3E48
:1055D000CF6E3B3EC2C5473E0115543E135C603E54
:1055E0007F9A6C3ECCCF783EC07D823E938E883EC3
:1055F000229A8E3E32A0943E86A09A3EE59AA03E24
:10560000128FA63ED47CAC3EEF63B23E2A44B83E35
:10561000491DBE3E15EFC33E53B9C93ECA7BCF3EBE
:105620004136D53E80E8DA3E4F92E03E7533E63EA5
:10563000BBCBEB3EEA5AF13ECBE0F63E275DFC3EAB
:10564000E4E7003F3D9C033F824B063F9BF5083F4C
:105650006B9A0B3FDA390E3FCDD3103F2A68133FC8
:10566000D9F6153FC07F183FC6021B3FD17F1D3FB3
:10567000CBF61F3F9967223F25D2243F5636273F5E
:105680001594293F4AEB2B3FDE3B2E3FBB85303F35
:10569000C9C8323FF304353F233A373F4268393FA8
:1056A0003B8F3B3FF9AE3D3F67C73F3F70D8413F1F
:1056B00001E2433F03E4453F65DE473F12D1493FE6
:1056C000F8BB4B3F029F4D3F207A4F3F3D4D513F2E
:1056D0004918533F31DB543FE595563F5348583FF7
:1056E0006AF2593F1A945B3F532D5D3F05BE5E3F02
:1056F0002146603F97C5613F5A3C633F59AA643FCA
:10570000880F663FD86B673F3CBF683FA7096A3F79
:105710000C4B6B3F5E836C3F93B26D3F9ED86E3FE8
:1057200073F56F3F0809713F5213723F4714733F7F
:10573000DD0B743F0BFA743FC6DE753F07BA763F48
:10574000C58B773FF853783F9812793F9DC7793FD3
:1057500002737A3FBE147B3FCDAC7B3F283B7C3F3E
:10576000C9BF7C3FAC3A7D3FCCAB7D3F23137E3F2E
:10577000B0707E3F6DC47E3F580E7F3F6D4E7F3FC1
:10578000AB847F3F0FB17F3F97D37F3F43EC7F3F99
:1057900011FB7F3F0000803F11FB7F3F43EC7F3FC9
:1057A00097D37F3F0FB17F3FAB847F3F6D4E7F3FED
:1057B000580E7F3F6DC47E3FB0707E3F23137E3F07
:1057C000CCAB7D3FAC3A7D3FC9BF7C3F283B7C3FA3
:1057D000CDAC7B3FBE147B3F02737A3F9DC7793FC0
:1057E0009812793FF853783FC58B773F07BA763FD9
:1057F000C6DE753F0BFA743FDD0B743F4714733FF1
:105800005213723F0809713F73F56F3F9ED86E3F88
:1058100093B26D3F5E836C3F0C4B6B3FA7096A3FB1
:105820003CBF683FD86B673F880F663F59AA643F0B
:105830005A3C633F97C5613F2146603F05BE5E3FCE
:10584000532D5D3F1A945B3F6AF2593F5348583FCE
:10585000E595563F31DB543F4918533F3D4D513F8D
:10586000207A4F3F029F4D3FF8BB4B3F12D1493F3B
:1058700065DE473F03E4453F01E2433F70D8413FC7
:1058800067C73F3FF9AE3D3F3B8F3B3F4268393FE3
:10589000233A373FF304353FC9C8323FBB85303F19
:1058A000DE3B2E3F4AEB2B3F1594293F5636273FD0
:1058B00025D2243F9967223FCBF61F3FD17F1D3F62
:1058C000C6021B3FC07F183FD9F6153F2A68133F19
:1058D000CDD3103FDA390E3F6B9A0B3F9BF5083F53
:1058E000824B063F3D9C033FE4E7003F275DFC3EC3
:1058F000CBE0F63EEA5AF13EBBCBEB3E7533E63EDB
:105900004F92E03E80E8DA3E4136D53ECA7BCF3E3C
:1059100053B9C93E15EFC33E491DBE3E2A44B83EA9
:10592000EF63B23ED47CAC3E128FA63EE59AA03E19
:1059300086A09A3E32A0943E229A8E3E938E883E56
:10594000C07D823ECCCF783E7F9A6C3E135C603E39
:105950000115543EC2C5473ECF6E3B3EA2102F3EBE
:10596000B5AB223E8340163E87CF093E73B2FA3D67
:105970002FBCE13D36BDC83D80B6AF3D04A9963D84
:10598000752B7B3D2EFB483D2BC3163DB10AC93C10
:10599000920E493C00000000920E49BCB10AC9BCFD
:1059A0002BC316BD2EFB48BD752B7BBD04A996BD30
:1059B00080B6AFBD36BDC8BD2FBCE1BD73B2FABD68
:1059C00087CF09BE834016BEB5AB22BEA2102FBE44
:1059D000CF6E3BBEC2C547BE011554BE135C60BE50
:1059E0007F9A6CBECCCF78BEC07D82BE938E88BEBF
:1059F000229A8EBE32A094BE86A09ABEE59AA0BE20
:105A0000128FA6BED47CACBEEF63B2BE2A44B8BE31
:105A1000491DBEBE15EFC3BE53B9C9BECA7BCFBEBA
:105A20004136D5BE80E8DABE4F92E0BE7533E6BEA1
:105A3000BBCBEBBEEA5AF1BECBE0F6BE275DFCBEA7
:105A4000E4E700BF3D9C03BF824B06BF9BF508BF48
:105A50006B9A0BBFDA390EBFCDD310BF2A6813BFC4
:105A6000D9F615BFC07F18BFC6021BBFD17F1DBFAF
:105A7000CBF61FBF996722BF25D224BF563627BF5A
:105A8000159429BF4AEB2BBFDE3B2EBFBB8530BF31
:105A9000C9C832BFF30435BF233A37BF426839BFA4
:105AA0003B8F3BBFF9AE3DBF67C73FBF70D841BF1B
:105AB00001E243BF03E445BF65DE47BF12D149BFE2
:105AC000F8BB4BBF029F4DBF207A4FBF3D4D51BF2A
:105AD000491853BF31DB54BFE59556BF534858BFF3
