:020000040800F2
:10000000C006002001010008813600086D2E00089E
:100010002936000891090008D53E000800000000BC
:10002000000000000000000000000000653800082B
:10003000910A00080000000039380008B13A0008B1
:100040001B0100081B0100081B0100081B01000820
:100050001B0100081B0100081B0100081B01000810
:100060001B0100081B0100081B010008550A0008BD
:100070001B0100081B0100081B0100081B010008F0
:100080001B0100081B0100081B0100081B010008E0
:100090001B0100081B0100081B0100081B010008D0
:1000A0001B0100081B0100081B0100081B010008C0
:1000B0001B0100081B0100081B0100081B010008B0
:1000C0001B0100081B0100081B0100081B010008A0
:1000D0001B0100081B0100081B0100081B01000890
:1000E0001B0100081B0100081B010008DFF80CD0F1
:1000F00000F0CCFA00480047B5400008C0060020D8
:100100000648804706480047FEE7FEE7FEE7FEE7B1
:10011000FEE7FEE7FEE7FEE7FEE7FEE73D3B000801
:10012000ED000008202A04DB203A21FA02F0002129
:10013000704721FA02F3D040C2F1200291400843F7
:1001400019467047D2B201E000F8012B491EFBD2DC
:1001500070470022F6E710B513460A4604461946D2
:10016000FFF7F0FF204610BDF0B480EA0102D40F83
:100170004200B2EB410F02D20246084611464A0045
:1001800042D0C30DDDB2C1F3C752AD1A202D35DA0E
:10019000C1F3160141F4000204B15242C5F1200638
:1001A00002FA06F12A411044B3EBD05F23D0C4B168
:1001B000012DA0EBC35009DCF0BC4FF0004202EA75
:1001C000C352DBB200F5000000F0ACB9400000F112
:1001D000807000EBC350A0F1807040EAD1704900FC
:1001E00009E0490841EAC071A0EBC35000F50000E6
:1001F000400800EBC350F0BC00F08BB96142012213
:1002000002EB4101001BF6E7F0BC704781F00041B2
:10021000AAE780F00040A7E780EA010210B502F0EB
:100220000043400022D04A001FD0010E01EB1261B2
:10023000C0F35600C2F3560240F4000042F400023C
:10024000A0FB022000047F39140400D0401C50EAB7
:10025000124001D44000491EC2B20C0604EBD0107B
:10026000401C4008802A02D003E0002010BD20F08E
:100270000100002900DA0020184310BD30B480EAE4
:10028000010202F0004530F0004221F0004013D09E
:1002900090B1C30DD40DC2F31601C0F31600E41AD9
:1002A00041F4000140F400027D34914201D3641C0A
:1002B00000E04900002C02DA30BC002070474FF407
:1002C00000000023914201D3891A034340084FEAFA
:1002D0004101F7D151B1914202D14FF0004105E007
:1002E00002D24FF0010101E06FF0010103EBC450B5
:1002F000284430BC00F00DB92DE9FE4F81EA03041B
:1003000004F0004421F0004100944FF0000B23F072
:10031000004350EA01045ED052EA03045BD0C3F309
:100320000A54C1F30A552C44A4F2F3340194A0FBFF
:100330000254C1F3130141F48011C3F3130343F4D6
:10034000801301FB024400FB034E840A970A44EA2F
:10035000815447EA8357A4FB076802958D0A05FB81
:1003600007854FEA932C04FB0C542705029D4FEAA6
:10037000065847EA1637B5EB08056EEB070C870EF3
:10038000920E47EA811742EA8312A7FB0201B6EBFD
:100390000B0164EB00042B0D43EA0C335E1844EBB5
:1003A0001C50DA465146E7FB0201C5F313044FEA3D
:1003B0000B3343EA14534FEA0432019C43EA060329
:1003C000A4F10C040294009CCDE900B400F010F9F3
:1003D00003B0BDE8F08F00200146F9E7002801DBFB
:1003E000C0F10040002901DBC1F10041814201D28E
:1003F0000120704700207047C10F80EAE070084478
:10040000CA079623002100F08DB8962300221146DA
:1004100000F088B800F0004220F00040C10DC0F3A9
:10042000160040F400007F2901DA00207047962969
:1004300003DCC1F19601C84001E096398840002AEA
:10044000F4D04042704720F00040C10DC0F31600C8
:1004500040F400007F2901DA00207047962903DC70
:10046000C1F19601C840704796398840704700F046
:10047000004230F000400AD0C10D01F56071C0F3B8
:10048000160042EA0151C20840071143704700209C
:100490000146704701F0004330B421F0004150EABA
:1004A000010206D00A0DA2F56072C1F31301002A01
:1004B00002DC30BC00207047440F44EAC104C10094
:1004C000E01830BC00EBC25000F023B8002801DB7C
:1004D000C0F10040002901DBC1F1004181427047B9
:1004E000002801DBC0F10040002901DBC1F100411F
:1004F00088427047202A04DB203A00FA02F10020EB
:1005000070479140C2F1200320FA03F31943904051
:1005100070470029A8BF7047401C490008BF20F061
:100520000100704710B4B0FA80FC00FA0CF050EAF9
:10053000010404BF10BC704749B1CCF1200421FA7A
:1005400004F411FA0CF118BF012121430843A3EB75
:100550000C01CB1D4FEA00614FEA102042BF002082
:1005600010BC704700EBC35010440029A4BF10BC5E
:100570007047401C490008BF20F0010010BC7047C4
:10058000F0B400F0004221F0004120F00040CE0D18
:10059000C30DC1F3160141F40001C0F316004C4233
:1005A000154640F40000761E09E010EB440002D529
:1005B00082F0004240428842F7D840005B1EB342BE
:1005C000F9DA18B1F0BC0021FFF7ACBF2846F0BC47
:1005D000704710B5141E73F1000408DA401C41F195
:1005E000000192185B411A4301D120F0010010BDB7
:1005F0002DE9F04D92469B4611B1B1FA81F202E02D
:10060000B0FA80F220329046FFF774FF04460F469E
:1006100040EA0A0041EA0B0153465A46084313D008
:10062000114653EA010019D0C8F140025046FFF7C5
:1006300079FD05460E46504659464246FFF75AFF99
:10064000084305D0012004E020463946BDE8F08D7E
:100650000020054346EAE0762C4337430A986305B9
:10066000E40AA0EB08000022FD0A44EA47540A30DD
:1006700002D500200146E9E7010510196941DDE9CD
:10068000084500196941BDE8F04DA2E7064C074D49
:1006900006E0E06840F0010394E807009847103452
:1006A000AC42F6D3FFF726FDC4490008E449000830
:1006B000F0B581B04FF68311C3F62261FFF7ACFDB0
:1006C0004FF07A51FFF750FD0446FFF7A3FE0546B1
:1006D000204600210027FFF781FE002818BF013DBA
:1006E0002846FFF789FE01462046FFF78FFD4FF0B1
:1006F0008841FFF791FD0446FFF78CFE0546204632
:100700004FF04441FFF730FD0646B7EB552F14BFBD
:10071000002526462846FFF778FE01463046FFF7BB
:1007200075FD44F2C011C0F6000101EB85020646DA
:1007300051F8254055684FF07E503146FFF766FD71
:100740002146FFF769FD044630462946FFF764FD60
:1007500001462046FFF708FD01B0F0BDF0B581B0BD
:100760004FF68311C3F62261FFF756FD0446FFF7EB
:1007700051FE0546204600210027FFF72FFE0028E6
:1007800018BF013D2846FFF737FE01462046FFF718
:100790003DFD4FF08841FFF73FFD0446FFF73AFE6D
:1007A000054620464FF04441FFF7DEFC0646B7EB16
:1007B000552F14BF002526462846FFF726FE014682
:1007C0003046FFF723FD44F2C011C0F6000101EBF3
:1007D0008502064651F8254055684FF07E50314657
:1007E000FFF714FD2146FFF717FD04463046294662
:1007F000FFF712FD01462046FFF7B6FC01B0F0BD41
:1008000070B5044600252068806800F0010018B328
:100810002068806820F001002168886001F00EF8EF
:10082000054613E001F00AF8401B02280ED92068A3
:10083000806800F0010048B1A06A40F01000A0629A
:10084000E06A40F00100E062012070BD206880682D
:1008500000F001000028E5D10020F6E770B505465C
:100860006C6AA06A00F05000E0B9A06A40F4007021
:10087000A0622068806800F46020B0F5602F0DD180
:10088000207B58B9A06A20F48070A062A06A00F4AE
:10089000805018B9A06A40F00100A062204600F024
:1008A00017FB03E0206A016B2846884770BD70B5CE
:1008B00005466C6AA06A40F04000A062E06A40F021
:1008C0000400E062204600F005FB70BD70B50446F0
:1008D000656A284600F0FDFA70BD000038B5044690
:1008E0000025002000902068806800F0010078BB9F
:1008F0002068806840F0010021688860194800681D
:100900001949B0FBF1F0009002E00098401E009001
:1009100000980028F9D100F091FF054619E000F099
:100920008DFF401B022814D92068806800F0010068
:1009300078B9A06A40F01000A062E06A40F00100BF
:10094000E06200BF002084F8240000BF012038BD11
:1009500005E02068806800F001000028DFD000205A
:10096000F5E70000FC00002040420F00FEB5044601
:100970000D4616463220012322466C21CDE9005651
:100980000290024801F048F8FEBD0000DC010020A2
:1009900000BFFEE710B50B4A00210B4802F064FFD0
:1009A00040F6B83000F0A0FD03F026FB07490860D0
:1009B000044A0021084602F057FF4FF4FA7000F095
:1009C00093FD10BDE4CB964000004040880000201D
:1009D00010B500F05FF8154800F03CF914481549CF
:1009E0000860154815490860124801684FF07E50AC
:1009F000FFF744FC0446114801682046FFF73EFC1F
:100A00000F4908600F490E480068FFF705FC0E49C2
:100A100008600C490A480068FFF7FEFB0B490860B4
:100A2000074800680A49086010BD000068010020FE
:100A30000AD7233CB000002000004842B400002048
:100A4000B8000020000080BFBC000020C0000020D3
:100A5000C400002010B5024800F0F6FB10BD0000F5
:100A60009801002030B590F840500124AC40C56B8F
:100A70006C60046863604468102C04D10468A26050
:100A80000468E16003E00468A1600468E26030BDCE
:100A9000704700002DE9F0414FF47A74002525E0FD
:100AA00002221F491F4800F00FFB1D490888FFF76D
:100AB000ACFC07461C49FFF7AFFB06461B48016824
:100AC0003046FFF751FB1949086015494888FFF780
:100AD0009CFC07461449FFF79FFB06461448016833
:100AE0003046FFF741FB124908606D1CA542D7DB79
:100AF0002046FFF78AFC054629460C480068FFF7A8
:100B0000BDFB0A4908602046FFF77FFC05462946E1
:100B100007480068FFF7B2FB05490860BDE8F081AF
:100B2000DC000020680100205940533AC800002032
:100B3000CC00002072B600BFFEE7000010B50446EE
:100B4000094804600021094802F0A6F8042107487A
:100B500002F0A2F80821054802F09EF8FFF738FFDE
:100B6000FFF718FF10BD00008400002030020020B5
:100B7000F8B500200090022269460C20FFF7F6FE2F
:100B80009DF801009DF8001040EA012004B22046C3
:100B9000FFF732FC06460649FFF73EFB05464FF0DD
:100BA0008B41FFF76BFB0349086008460068F8BDFE
:100BB000DB0FC940080000202DE9F0410446022265
:100BC0001D491E4800F080FA1B490888FFF71DFCEC
:100BD00007461B49FFF720FB054617494888FFF7E2
:100BE00014FC07461649FFF717FB0646154801682F
:100BF0002846FFF70BFB0746134801683846FFF706
:100C00000BFB2060114801683046FFF7FFFA0746EA
:100C10000F4801683846FFF7FFFA6060094801682D
:100C20002846FFF7F3FAA060084801683046FFF74E
:100C3000EDFAE060BDE8F081DC00002068010020F2
:100C40005940533AC8000020BC000020CC000020CE
:100C5000C0000020F8B5044600260020009000BF28
:100C600094F82400012801D10220F8BD012084F865
:100C7000240000BF2046FFF7C3FD06462046FFF7CD
:100C80002DFE0646002E69D1A06A20F4885040F05F
:100C90000200A062022001F087F934490968B1FB23
:100CA000F0F04000009002E00098401E0090009894
:100CB0000028F9D12068806840F008002168886029
:100CC00000F0BCFD054616E000F0B8FD401B0A2808
:100CD00011D92068806800F0080060B1A06A20F097
:100CE000020040F01000A06200BF002084F8240041
:100CF00000BF0120B9E72068806800F008000028E4
:100D0000E2D12068806840F004002168886000F02B
:100D100095FD054616E000F091FD401B0A2811D90B
:100D20002068806800F0040060B1A06A20F0020032
:100D300040F01000A06200BF002084F8240000BF33
:100D4000012092E72068806800F004000028E2D1CA
:100D5000A06A20F0020040F00100A06200BF002065
:100D600084F8240000BF30467FE70000FC0000202C
:100D700038B5024600230020009000BF92F82400FE
:100D8000012801D1022038BD012082F8240000BFD3
:100D90004868072812D21068406B0C79641E04EB77
:100DA00084051F24AC40A0430D796D1E05EB85051D
:100DB0000C68AC4020431468606327E048680D2845
:100DC00012D21068006B0C79E41F04EB84051F2419
:100DD000AC40A0430D79ED1F05EB85050C68AC40D8
:100DE00020431468206311E01068C06A0C790D3C40
:100DF00004EB84051F24AC40A0430D790D3D05EBA9
:100E000085050C68AC4020431468E06208680A2835
:100E100012D31068C0680C780A3C04EB4405072420
:100E2000AC40A0430D780A3D05EB45058C68AC400D
:100E300020431468E0600FE0106800690C7804EB50
:100E400044050724AC40A0430D7805EB45058C68AC
:100E5000AC402043146820610868102802D008685C
:100E6000112827D1174C1068A0421ED11068806845
:100E700000F40000F0B91068806840F400001468C5
:100E8000A0600868102815D10F4800680F4CB0FB0F
:100E9000F4F000EB80004000009002E00098401E5B
:100EA000009000980028F9D104E0906A40F02000FA
:100EB0009062012300BF002082F8240000BF184682
:100EC00061E7000000240140FC00002040420F00C8
:100ED00070477047704700002DE9F0410446002735
:100EE00000250026A84614B90120BDE8F081A068BD
:100EF00010B1207D00B100BFA06A30B90020E062CF
:100F000084F82400204600F089F82046FFF778FC9A
:100F10000746A06A00F01000002873D1002F71D19D
:100F2000A06A20F4885040F00200A062E169606885
:100F30000843217B40EA41000643A068B0F5807F6A
:100F400002D0A068012802D14FF4807000E0002098
:100F50000543207D012811D1207B38B9A069401EAE
:100F60004FF4006141EA4030054307E0A06A40F0D9
:100F70002000A062E06A40F00100E0622068406862
:100F800020F469402843216848602068806821492E
:100F90000840304321688860A068B0F5807F02D0A7
:100FA000A068012802D14FF4807000E00020B0F565
:100FB000807F03D1208A401E4FEA00582068C06A13
:100FC00020F4700040EA08002168C8622068806848
:100FD00011490840B04208D10020E062A06A20F028
:100FE000020040F00100A06211E0A06A20F00200BF
:100FF00040F01000A062E06A40F00100E0620127CA
:1010000005E0FFE7A06A40F01000A0620127384623
:101010006BE70000FDF7E1FFFE0E1FFF10B586B085
:101020000446002002900390049005902149206816
:1010300088423CD100BF2048806940F400701E49BE
:1010400088610846806900F40070019000BF00BF0D
:1010500000BF0846806940F0080088610846806942
:1010600000F00800019000BF00BF03200290039031
:1010700002A9124800F04CFA1148124908600020F9
:10108000486000210F4881608021C16049000161F2
:101090008900416100218161C16100F0A3F908B1BB
:1010A000FFF748FD00BF07482062446200BF06B05A
:1010B00010BD00000024014000100240000C01405F
:1010C00008000240980100202DE9F04104460D4639
:1010D0001646002757492068884203D056492068A1
:1010E000884205D15348001D006800F4702000E0DC
:1010F000002000287ED100BF94F82400012802D1EE
:101100000220BDE8F081012084F8240000BF2046C1
:10111000FFF7E4FB0746002F6DD1A06A40F601619E
:10112000884340F48070A06243492068884209D116
:101130004048001D006800F4702008B9012002E05A
:10114000002000E0012078B1A06A20F48010A062A5
:101150002068406800F4806000B3A06A20F400506A
:1011600040F48050A06219E0A06A40F48010A062B0
:1011700030492068884203D02F492068884205D131
:101180002C48001D006800F4806000E0002028B1B9
:10119000A06A20F4005040F48050A062A06A00F4DD
:1011A000805020B1E06A20F00600E06201E00020FB
:1011B000E06200BF002084F8240000BF1F48216ABD
:1011C00088621F48216AC8621E48216A08636FF05E
:1011D0000200216808602068806840F480702168FF
:1011E0008860226802F14C0133462A46206A00F0EA
:1011F0002DF901E01AE014E02068806800F4602016
:10120000B0F5602F06D12068806840F4A000216806
:1012100088600CE02068806840F480102168886055
:1012200005E000BF002084F8240000E001273846D4
:1012300067E7000000240140002801405D08000825
:10124000CD080008AF08000870B50446E06B0568DB
:101250002068066894F84010042088402840002840
:1012600046D006F00400002842D02068006800F054
:10127000200028B92068006820F004002168086078
:1012800057492068884201D1042027E0544914318D
:101290002068884201D1402020E05149283120684F
:1012A000884201D1001519E04D493C31206888423F
:1012B00002D14FF4804011E0494950312068884202
:1012C00002D14FF4802009E045496431206888420A
:1012D00002D14FF4800001E04FF0806040490839AE
:1012E0004860E06A00287AD02046E16A884776E0C4
:1012F00094F84010022088402840A0B306F0020075
:1013000088B32068006800F0200040B920680068B9
:1013100020F00A0021680860012084F8210030498B
:101320002068884201D1022028E02D49143120682C
:10133000884201D1202021E02949283120688842B3
:1013400001D140151AE026493C312068884202D17B
:101350004FF4005012E0224950312068884203D1F6
:101360004FF400300AE017E01D49643120688842DC
:1013700002D14FF4001001E04FF000701849083915
:10138000486000BF002084F8200000BFA06A30B38E
:101390002046A16A884722E094F84010082088403F
:1013A0002840E0B106F00800C8B12068006820F0CD
:1013B0000E002168086094F8401001208840E16B1D
:1013C00048600120A06384F8210000BF002084F859
:1013D000200000BF206B10B12046216B884770BDF4
:1013E000080002400146002209B901207047164B4F
:1013F0000868C01A1423B0FBF3F080000864124898
:101400000838C863022081F821000868026843F6A2
:10141000F0708243D1E901031843CB6818430B698C
:1014200018434B6918438B691843CB69184302432F
:101430000868026000208863012081F821000020F4
:1014400081F8200000BFD1E7080002402DE9F041FB
:1014500004460D4616461F464FF0000800BF94F89C
:101460002000012802D10220BDE8F081012084F88B
:10147000200000BF94F8210001282CD1022084F81C
:1014800021000020A0632068006820F0010021688E
:1014900008603B46324629462046FFF7E3FAE06AF9
:1014A00030B12068006840F00E00216808600BE051
:1014B0002068006820F00400216808602068006847
:1014C00040F00A00216808602068006840F00100D0
:1014D0002168086006E000BF002084F8200000BFFB
:1014E0004FF002084046BFE770B5044600F0A6F989
:1014F00006462546681C10B104480078054400BF24
:1015000000F09CF9801BA842FAD370BDF8000020BF
:101510002DE9F8470346002294466EE14FF001089A
:1015200008FA02F4D1F8008008EA0400A0427DD154
:10153000DFF8DCA2D1F80480A8EB0A09D0453AD044
:1015400014DCB8F1030F50D009DCB8F1000F31D032
:10155000B8F1010F1CD0B8F1020F49D120E0B8F169
:10156000110F18D0B8F1120F42D11EE0B9F5881F43
:1015700025D006DCB9F5803F20D0B9F5801F37D1E2
:101580001AE0B9F5001F18D0B9F5041F30D117E0E3
:10159000D1F80CC02DE0D1F80C8008F1040C28E043
:1015A000D1F80C8008F1080C23E0D1F80C8008F188
:1015B0000C0C1EE000BF00BF00BF00BF00BF00BF9B
:1015C000D1F80880B8F1000F02D14FF0040C0BE005
:1015D000D1F80880B8F1010F03D14FF0080C1C615D
:1015E00002E04FF0080C5C6103E04FF0000C00E0FB
:1015F00000BF00BFFF2801D8984601E003F10408AE
:101600004646FF2802D84FEA820803E0A2F1080804
:101610004FEA88084746D6F800804FF00F0909FACC
:1016200007F928EA09080CFA07F900E088E048EA17
:101630000908C6F80080D1F8048008F08058B8F195
:10164000805F7DD100BFDFF8CC81D8F8188048F0EA
:101650000108DFF8C091C9F81880C846D8F818808A
:1016600008F00108CDF8008000BF00BF4FEAB9388C
:101670004FEA920958F829504FEA82784FEA1879D0
:101680004FF00F0808FA09F825EA0805DFF8888105
:10169000434502D14FF0000816E0DFF88081434552
:1016A00002D14FF001080FE0DFF87481434502D109
:1016B0004FF0020808E0DFF86C81434502D14FF09B
:1016C000030801E04FF004084FEA82794FEA1979E4
:1016D00008FA09F848EA0505DFF84C814FEA920953
:1016E00048F82950D1F8048008F48018B8F5801F14
:1016F0000AD1DFF83881D8F8008048EA0008DFF81E
:101700002C91C9F8008009E0DFF82081D8F800802A
:1017100028EA0008DFF81491C9F80080D1F80480A5
:1017200008F40018B8F5001F10D1DFF8008108F1A7
:101730000408D8F8008048EA0008DFF8F09000E0DC
:101740005AE009F10409C9F800800DE0DFF8DC80F7
:1017500008F10408D8F8008028EA0008DFF8CC90E7
:1017600009F10409C9F80080D1F8048008F40038B0
:10177000B8F5003F0ED1DFF8B480A8F10408D8F81E
:10178000008048EA0008DFF8A490A9F10409C9F82C
:1017900000800DE0DFF89480A8F10408D8F80080FC
:1017A00028EA0008DFF88490A9F10409C9F800804C
:1017B000D1F8048008F48038B8F5803F0ED1DFF806
:1017C0006C80A8F10808D8F8008048EA0008DFF823
:1017D0005C90A9F10809C9F800800DE0DFF84C80A1
:1017E000A8F10808D8F8008028EA0008DFF83C9043
:1017F000A9F10809C9F80080521CD1F8008028FA24
:1018000002F8B8F1000F7FF489AEBDE8F887000058
:10181000000011100010024000080140000C0140BF
:10182000001001400014014008000140080401407C
:101830000AB1016101E00B040361704701480068CF
:1018400070470000F000002070B504460CB901207C
:1018500070BD94F83D0028B9002084F83C00204673
:1018600000F094FA242084F83D002068006820F0FD
:101870000100216808602068006840F40040216889
:1018800008602068006820F400402168086000F0CB
:101890006DFD05465C496068884206D85B48854214
:1018A00001D2012007E0002005E05948854201D21D
:1018B000012000E00020012800D1C9E75548B5FB10
:1018C000F0F62068406820F03F003043216848600F
:1018D0004D496068884201D8701C07E04FF496704B
:1018E00070434FF47A71B0FBF1F0401C2168096A33
:1018F00021F03F010843216808624349606888423B
:1019000014D8681E61684900B0FBF1F0401CC0F3B8
:101910000B00042801D204203DE0681E61684900E4
:10192000B0FBF1F0401CC0F30B0034E0A06838B904
:10193000681E616801EB4101B0FBF1F0401C0AE058
:10194000681E616801EBC10202EB0111B0FBF1F00E
:10195000401C40F48040C0F30B0008B901201AE09D
:10196000A06848B9681E616801EB4101B0FBF1F065
:10197000401CC0F30B000CE0681E616801EBC10263
:1019800002EB0111B0FBF1F0401CC0F30B0040F47E
:10199000804040F400402168C9694CF6FF729143D1
:1019A00008432168C861D4E9070108432168096830
:1019B00021F0C001084321680860D4E903100843FE
:1019C0002168896848F2FF329143084321688860A2
:1019D000D4E9050108432168C96821F0FF010843E3
:1019E0002168C8602068006840F001002168086034
:1019F00000202064202084F83D000020206384F82B
:101A00003E0000BF24E70000A086010080841E0085
:101A100000093D0040420F002DE9FE4F04460F46ED
:101A200090469946DDE90CAB0E9E00200290FFF730
:101A300005FF054694F83D00202872D119230122A4
:101A4000CE492046009501F0E3FA10B10220BDE82E
:101A5000FE8F00BF94F83C00012801D10220F6E778
:101A6000012084F83C0000BF2068006800F00100FD
:101A700028B92068006840F00100216808602068EB
:101A8000006820F4006021680860222084F83D008E
:101A9000402084F83E0000202064C4F824A0A4F86C
:101AA0002AB0608D2085B648E0624B4642463946F2
:101AB0002046CDE9006501F0FBF908B10120C6E739
:101AC000208D88B900BF00200190206840690190F6
:101AD00020688069019000BF00BF2068006840F462
:101AE0000070216808604BE0208D01281AD1206821
:101AF000006820F480602168086072B600BF002092
:101B0000019020684069019020688069019000BFC1
:101B100000BF2068006840F400702168086062B669
:101B20002EE029E1208D022819D12068006840F4B8
:101B300000602168086072B600BF00200190206834
:101B40004069019020688069019000BF00BF206853
:101B5000006820F480602168086062B610E02068A8
:101B6000006840F480602168086000BF0020019098
:101B700020684069019020688069019000BF00BF23
:101B8000EBE0208D03287DD8208D012815D12A4631
:101B90003146204601F018FB08B1012057E72068C4
:101BA0000069616A0870606A401C6062208D401E96
:101BB0002085608D401E6085CFE0208D02282CD1CD
:101BC000334600226F492046009501F021FA08B102
:101BD00001203CE772B62068006840F4007021687C
:101BE000086020680069616A0870606A401C606271
:101BF000208D401E2085608D401E608562B6206865
:101C00000069616A0870606A401C6062208D401E35
:101C10002085608D401E60859FE033460022594933
:101C20002046009501F0F4F908B101200FE7206883
:101C3000006820F480602168086072B6206800693E
:101C4000616A0870606A401C6062208D401E2085B9
:101C5000608D401E60854C4800681921B0FBF1F092
:101C60004FF47A71B0FBF1F0C0EBC00000EB8000E4
:101C7000029000BF0298401E02900298A8B900206E
:101C8000206300E039E0202084F83D00002084F843
:101C90003E00206C40F02000206462B600BF0020AF
:101CA00084F83C0000BF0120D1E620684069C0F301
:101CB00080000028DED02068006840F400702168B1
:101CC000086020680069616A0870606A401C606290
:101CD000208D401E2085608D401E608562B6206884
:101CE0000069616A0870606A401C6062208D401E55
:101CF0002085608D401E60852FE02A4631462046B3
:101D000001F062FA08B10120A1E620680069616A69
:101D10000870606A401C6062208D401E2085608DC6
:101D2000401E608520684069C0F38000A8B1208D06
:101D3000032805D12068006820F4806021680860CD
:101D400020680069616A0870606A401C6062208DCA
:101D5000401E2085608D401E6085208D00287FF408
:101D600010AF202084F83D00002084F83E0000BF22
:101D700084F83C0000BF6AE6022068E6020010001A
:101D80000000FFFF04000100FC00002010B586B039
:101D900004460020029003900490059016492068A4
:101DA000884226D100BF1548806940F008001349D9
:101DB00088610846806900F00800019000BF00BFFC
:101DC0004FF440600290122003900320059002A976
:101DD0000B48FFF79DFB00BF0848C06940F4800036
:101DE0000649C8610846C06900F48000019000BF40
:101DF00000BF06B010BD00000058004000100240B7
:101E0000000C01400348006803490978084401496F
:101E100008607047F0000020F800002010B5084866
:101E2000006840F0100006490860032000F0A8F8A0
:101E30000F2000F007F800F02BF8002010BD000084
:101E40000020024070B504460E4800784FF47A71C5
:101E5000B1FBF0F00C490968B1FBF0F5284600F041
:101E60000FFD08B1012070BD102C07D200222146C1
:101E7000501E00F047F80548046001E00120F2E739
:101E80000020F0E7F8000020FC000020F400002013
:101E900008B500BF1148806940F001000F49886112
:101EA0000846806900F00100009000BF00BF00BF3D
:101EB0000846C06940F08050C8610846C06900F01B
:101EC0008050009000BF00BF00BF0549486820F067
:101ED000E06040F00070486000BF08BD00100240A4
:101EE0000000014001460846002809DB00F01F03FE
:101EF00001229A4043099B0003F1E023C3F800212B
:101F000000BF70472DE9F05F80460D46164600275A
:101F100001F0E2FF074639462A46334601F0070042
:101F2000C0F1070ABAF1040F02D94FF0040A01E028
:101F3000C0F1070AD14600F1040ABAF1070F02D234
:101F40004FF0000A01E0A0F1030AD4464FF0010A65
:101F50000AFA09FAAAF1010A0AEA020A0AFA0CFACA
:101F60004FF0010B0BFA0CFBABF1010B0BEA030B6F
:101F70004AEA0B042146404601F0B6FFBDE8F09F57
:101F800000BF00F00702064B19684FF6FF03194027
:101F9000044B0B4343EA0221014B196000BF704719
:101FA0000CED00E00000FA052DE9F04706464FF081
:101FB0000008002500270024A146012E31D0022E62
:101FC00056D0102E5FD132484468006800F080700F
:101FD00008B33048C4F38341475C04F4803078B1DF
:101FE0002B484068C0F340402B4911F8008004F4AE
:101FF000803040B12948B0FBF8F000FB07F502E063
:10200000274807FB00F52248406800F48000B0F53F
:10201000800F01D1A94603E068000321B0FBF1F96C
:1020200032E01B48046A04F44070B0F5807F05D1AB
:1020300004F0020010B14FF4004918E004F44070BD
:10204000B0F5007F07D11248406A00F0020010B1DD
:1020500049F640490BE004F44070B0F5407F06D1EA
:102060000B48006800F4003008B14FF224490BE03F
:1020700000F08CF906494968C1F38131491C4900D7
:10208000B0FBF1F900E000BF00BF4846BDE8F087B3
:102090000010024096410008A641000800127A0094
:1020A00000093D00F8B5044600260025207800F020
:1020B000010000286BD000274348C06900F0805021
:1020C00070B900BF4048C06940F080503E49C861C7
:1020D0000846C06900F08050009000BF00BF012793
:1020E0003A48006800F48070B0B93848006840F49D
:1020F000807036490860FFF7A1FB064606E0FFF74F
:102100009DFB801B642801D90320F8BD2F4800687F
:1021100000F480700028F2D02B48006A00F440756B
:102120002DB3A08800F44070A84220D02648006A51
:1021300020F44075012026490860002008602248EC
:10214000056205F0010090B1FFF778FB064608E054
:10215000FFF774FB801B41F28831884201D90320CC
:10216000D3E71948006A00F002000028F0D01648B2
:10217000006A20F440706168084313490862012F27
:1021800004D10846C06920F08050C86100BF2078A3
:1021900000F00200022807D10B48406820F44040BC
:1021A000A168084308494860207800F01000102812
:1021B00007D10548406820F48000E16808430249DF
:1021C00048600020A1E700000010024000700040BD
:1021D0004004424270B504460D460CB9012070BD62
:1021E0005A48006800F00700A8420ED2574800681D
:1021F00020F007002843554908600846006800F0B1
:102200000700A84201D00120E9E7207800F0020091
:1022100002281DD1207800F00400042805D14C4884
:10222000406840F4E0604A494860207800F00800C7
:10223000082805D14648406840F460504449486049
:102240004348406820F0F000A168084340494860D6
:10225000207800F0010078B36068012806D13C487E
:10226000006800F4003090B90120B8E760680228E7
:1022700006D13748006800F0007040B90120AEE791
:102280003348006800F0020008B90120A7E7304891
:10229000406820F00300616808432D494860FFF75B
:1022A000CDFA064609E0FFF7C9FA801B41F28831F2
:1022B000884202D9032092E707E02548406800F0F1
:1022C0000C006168B0EB810FEDD12048006800F090
:1022D0000700A8420ED91D48006820F007002843D7
:1022E0001A4908600846006800F00700A84201D0BB
:1022F000012074E7207800F00400042807D1144876
:10230000406820F4E060E1680843114948602078A3
:1023100000F00800082808D10D48406820F46050FB
:10232000216940EAC1000A49486000F03FF80849C5
:102330004968C1F30311074A515CC8400649086067
:1023400006480068FFF77EFD002048E700200240B5
:1023500000100240A8410008FC000020F40000200A
:102360000148006870470000FC00002000B5FFF73E
:10237000F7FF04494968C1F30221034A515CC84090
:1023800000BD000000100240B841000800B5FFF792
:10239000E7FF04494968C1F3C221034A515CC840C0
:1023A00000BD000000100240B841000870B50021D7
:1023B0000022002400230020134D696801F00C0561
:1023C000F5B1042D02D0082D19D101E00F4819E014
:1023D0000F4DC1F38346AB5D01F4803555B10A4D15
:1023E0006D68C5F340450B4E725D084D5D43B5FB0E
:1023F000F2F402E0084D03FB05F4204602E000BFC2
:10240000024800BF00BF70BD0010024000127A00F9
:10241000844100089441000800093D00F8B50446D5
:102420000CB90120F8BD207800F00100002878D018
:10243000F848406800F00C0004280CD0F5484068CB
:1024400000F00C00082811D1F248406800F48030F8
:10245000B0F5803F0AD1EF48006800F40030002852
:102460005FD0606800285CD10120DBE700BF6068B6
:10247000B0F5803F06D1E748006840F48030E54978
:10248000086028E0606858B9E248006820F48030AD
:10249000E04908600846006820F4802008601AE0DF
:1024A0006068B0F5A02F0BD1DA48006840F48020B6
:1024B000D84908600846006840F4803008600AE0A7
:1024C000D448006820F48030D2490860084600688B
:1024D00020F48020086000BF606888B1FFF7AEF983
:1024E000054606E0FFF7AAF9401B642801D903203E
:1024F00098E7C848006800F400300028F2D010E0E7
:10250000FFF79CF9054606E0FFF798F9401B6428A1
:1025100001D9032086E7BF48006800F40030002896
:10252000F2D1207800F00200022857D1B948406863
:1025300000F00C0050B1B748406800F00C000828CB
:1025400018D1B448406800F4803098B9B1480068A8
:1025500000F0020020B12069012801D0012061E7CC
:10256000AC48006820F0F800616940EAC100A94960
:10257000086033E02069E8B10120A7490860FFF74F
:102580005DF9054606E0FFF759F9401B022801D91D
:10259000032047E79F48006800F002000028F2D0BF
:1025A0009C48006820F0F800616940EAC100994940
:1025B000086013E0002098490860FFF73FF90546DE
:1025C00006E0FFF73BF9401B022801D9032029E769
:1025D0009048006800F002000028F2D1207800F056
:1025E000080008282DD1A069B8B101208B490860E6
:1025F000FFF724F9054606E0FFF720F9401B022803
:1026000001D903200EE78348406A00F00200002849
:10261000F2D0012001F012F913E000207F49086098
:10262000FFF70CF9054606E0FFF708F9401B022802
:1026300001D90320F6E67748406A00F0020000283E
:10264000F2D1207800F00400042873D100277148EB
:10265000C06900F0805070B900BF6E48C06940F09A
:1026600080506C49C8610846C06900F080500090F5
:1026700000BF00BF01276A48006800F48070B0B94D
:102680006748006840F4807065490860FFF7D6F835
:10269000054606E0FFF7D2F8401B642801D9032065
:1026A000C0E65F48006800F480700028F2D000BFE8
:1026B000E068012806D15748006A40F001005549FA
:1026C000086227E0E06858B95248006A20F001002B
:1026D000504908620846006A20F00400086219E0C8
:1026E000E06805280BD14B48006A40F004004949D6
:1026F00008620846006A40F0010008620AE04548A6
:10270000006A20F00100434908620846006A20F090
:102710000400086200BFE068A0B1FFF78FF805462B
:1027200009E0FFF78BF8401B41F28831884202D95B
:10273000032077E622E03748006A00F00200002814
:10274000EFD012E0FFF77AF8054608E0FFF776F8D9
:10275000401B41F28831884201D9032062E62D48AE
:10276000006A00F002000028F0D1012F05D12948AD
:10277000C06920F080502749C86100BFE069C8B334
:102780002448406800F00C00082860D0E069022866
:1027900048D1002020490866FFF750F8054606E0BA
:1027A000FFF74CF8401B022801D903203AE61948EC
:1027B000006800F000700028F2D1206AB0F5803F78
:1027C00007D11448406820F40030A168084311493B
:1027D0004860D4E9080108430E49496821F474119E
:1027E00008430C49486001200B490866FFF726F8AA
:1027F000054607E03DE0FFF721F8401B022801D91C
:1028000003200FE60348006800F000700028F2D0B3
:102810002FE00000001002400000424280044242CB
:1028200000700040002014490866FFF707F80546CD
:1028300006E0FFF703F8401B022801D90320F1E569
:102840000E48006800F000700028F2D111E0E06945
:10285000012800D1E6E50948466806F48031206A7F
:10286000814204D106F47011606A814201D00120D6
:10287000D8E50020D6E500000000424200100240EA
:1028800070B504462546681EB0F1807F01D3012053
:102890000FE0681E4FF0E02148610F214FF0FF303C
:1028A00001F022FB00204FF0E02188610720086141
:1028B000002070BD30B502460B4600BF92F83C00C8
:1028C000012801D1022030BD012082F83C0000BF68
:1028D000022082F83D00106844681068816824F086
:1028E00070041868044310684460104D1068A842D2
:1028F0000BD01068B0F1804F07D00D4D1068A84282
:1029000003D00C4D1068A84205D121F08001586811
:10291000014310688160012082F83D0000BF002063
:1029200082F83C0000BF00BFCDE70000002C014052
:10293000000400400008004010B504460CB9012016
:1029400010BD94F83D0028B9002084F83C002046D2
:1029500000F026F8022084F83D00211D206801F0D7
:10296000EFF8012084F8460000BF84F83E00012102
:102970003F200155402001554120015500BF00BFB7
:10298000012084F842004320015544200155452090
:10299000015500BF012084F83D000020D0E7000071
:1029A00008B50168B1F1804F0DD100BF0649C96972
:1029B00041F00101044AD1611146C96901F00101E8
:1029C000009100BF00BF08BD001002402DE9F0419A
:1029D00004460D46002700BF94F83C00012802D1B0
:1029E0000220BDE8F081012084F83C0000BF0220F5
:1029F00084F83D002068866826F0770626F47F4636
:102A0000206886602868502833D00CDC202850D0FD
:102A100004DC00284BD0102851D149E0302849D09F
:102A200040284CD139E060282DD0702807D0B0F56F
:102A3000805F03D0B0F5005F41D10DE041E0D5E902
:102A400002136A68206801F0CEF82068866846F0B4
:102A500077062068866034E0D5E902136A6820684A
:102A600001F0C1F82068806840F4804021688860E7
:102A700027E0EA686968206801F086F9502120683B
:102A800001F0BCF81DE0EA686968206801F08FF980
:102A90006021206801F0B2F813E0EA6869682068F4
:102AA00001F072F94021206801F0A8F809E000BFA8
:102AB00000BF00BF2968206801F0A0F801E00127ED
:102AC00000BF00BF012084F83D0000BF002084F853
:102AD0003C0000BF384684E710B586B004460020AD
:102AE00002900390049005902068B0F1804F16D1B9
:102AF00000BF0C48806940F004000A49886108461C
:102B0000806900F00400019000BF00BF0720029020
:102B100002200390059002A90348FEF7F9FC06B0D5
:102B200010BD000000100240000801402DE9F041F6
:102B300004460D461646002700BF94F83C000128C5
:102B400002D10220BDE8F081012084F83C0000BFE2
:102B500036B1042E1BD0082E31D00C2E5ED145E0AC
:102B60002946206801F054F82068806940F0080088
:102B7000216888612068806920F0040021688861EC
:102B800020688069296908432168886148E02946EE
:102B9000206801F06DF82068806940F400602168C9
:102BA00088612068806920F48060216888612068DD
:102BB0008069296940EA01202168886130E029465E
:102BC000206801F089F82068C06940F00800216899
:102BD000C8612068C06920F004002168C8612068CD
:102BE000C069296908432168C86119E0294620683D
:102BF00001F0A6F82068C06940F400602168C8614F
:102C00002068C06920F480602168C8612068C069BC
:102C1000296940EA01202168C86101E0012700BF5D
:102C200000BF00BF002084F83C0000BF384689E7A1
:102C300010B504460CB9012010BD94F83D0028B928
:102C4000002084F83C00204600F025F8022084F89B
:102C50003D00211D206800F073FF012084F846002C
:102C600000BF84F83E0001213F200155402001555E
:102C70004120015500BF00BF012084F842004320DD
:102C80000155442001554520015500BF012084F81D
:102C90003D000020D0E7704770B504460D4615B9D9
:102CA00094F83E000BE0042D02D13F20005D06E0C9
:102CB000082D02D14020005D01E04120005D012887
:102CC00001D0012070BD1DB9022084F83E000EE045
:102CD000042D03D102213F20015508E0082D03D126
:102CE00002214020015502E002214120015501222C
:102CF0002946206800F066FF19492068884201D102
:102D0000012000E0002028B12068406C40F4004021
:102D1000216848641249206888420BD02068B0F1CD
:102D2000804F07D00F492068884203D00E492068A1
:102D300088420CD12068806800F00706062E0CD06F
:102D40002068006840F001002168086005E0206804
:102D5000006840F00100216808600020B2E7000030
:102D6000002C0140000400400008004010B504465B
:102D70000CB9012010BDA06900B100E000BF94F8BB
:102D8000410028B9002084F84000204600F02AF8CD
:102D9000242084F841002068C06820F40050216895
:102DA000C860204601F018F82068006920F49040BF
:102DB000216808612068406920F02A002168486184
:102DC0002068C06840F400502168C860002060643A
:102DD000202084F8410084F842000020606300BF96
:102DE000C8E7000010B586B00446002002900390AA
:102DF000049005901A49206888422ED100BF1948D6
:102E0000806940F48040174988610846806900F471
:102E10008040019000BF00BF00BF0846806940F0BD
:102E2000040088610846806900F00400019000BF3A
:102E300000BF48150290022003900320059002A9CC
:102E40000948FEF765FB4FF4806002900020039074
:102E5000049002A90448FEF75BFB06B010BD000019
:102E600000380140001002400008014000BFFEE7AA
:102E7000014608684069C0F38020B0B16FF48060FB
:102E80000A68506100200863202081F83D0000207E
:102E900081F83E00086C40F00400086400BF002088
:102EA00081F83C0000BF012070470020FCE70000D3
:102EB0002DE9F84304460F4615469946DDE9088694
:102EC0002068006840F4806021680860206800681D
:102ED00040F4807021680860434600224FF00111E1
:102EE0002046009600F094F860B12068006800F475
:102EF0008070B0F5807F02D14FF400702064032011
:102F0000BDE8F88307F0FE002168086133464246B9
:102F10003E49204600F0DBF808B10120F0E700BF91
:102F2000002000902068406900902068806900902F
:102F300000BF00BF32464146204600F08AF950B13A
:102F4000206C042805D12068006840F400702168D6
:102F500008600120D4E7B9F1010F03D1E8B221687C
:102F6000086117E0C5F30720216808613246414631
:102F7000204600F06EF950B1206C042805D120687D
:102F8000006840F40070216808600120B8E7E8B2EA
:102F90002168086132464146204600F05AF950B196
:102FA000206C042805D12068006840F40070216876
:102FB00008600120A4E72068006840F48070216860
:102FC0000860434600224FF001112046009600F0B1
:102FD0001FF858B12068006800F48070B0F5807F59
:102FE00002D14FF400702064032089E7F8B240F06A
:102FF000010021680861334642460449204600F03A
:1030000066F808B101207BE7002079E702000100A3
:103010002DE9F04104460D4617461E46DDF818809E
:1030200038E0701CA8B3FEF709FCA0EB0800B04222
:1030300000D876BBC5F3074001280AD12068406953
:10304000A9B20840A9B2884201D101200BE00020BA
:1030500009E020688069A9B20840A9B2884201D17C
:10306000012000E00020B84214D10020206320207D
:1030700084F83D00002084F83E00206C40F02000E1
:10308000206400BF002084F83C0000BF0120BDE8A0
:10309000F081FFE7C5F3074001280AD120684069A5
:1030A000A9B20840A9B2884201D101200BE000205A
:1030B00009E020688069A9B20840A9B2884201D11C
:1030C000012000E00020B842ABD00020DFE72DE96E
:1030D000F04104460D4616461F4658E020684069F8
:1030E000C0F38020E8B12068006840F400702168D7
:1030F00008606FF480602168486100202063202010
:1031000084F83D00002084F83E00206C40F004006C
:10311000206400BF002084F83C0000BF0120BDE80F
:10312000F081701C90B3FEF789FBC01BB04200D841
:1031300066BBC5F3074001280AD120684069A9B2DF
:103140000840A9B2884201D101200BE0002009E02B
:1031500020688069A9B20840A9B2884201D1012043
:1031600000E0002090B900202063202084F83D007A
:10317000002084F83E00206C40F02000206400BF56
:10318000002084F83C0000BF0120C8E7FFE7C5F33A
:10319000074001280AD120684069A9B20840A9B2B5
:1031A000884201D101200BE0002009E020688069FD
:1031B000A9B20840A9B2884201D1012000E0002054
:1031C00000288BD00020AAE770B504460D461646AD
:1031D00037E020684069C0F30010A0B16FF0100024
:1031E0002168486100202063202084F83D000020F1
:1031F00084F83E00206C206400BF002084F83C006E
:1032000000BF012070BDFEF719FB801BA84200D84B
:10321000BDB920684069C0F3801090B900202063D8
:10322000202084F83D00002084F83E00206C40F00F
:103230002000206400BF002084F83C0000BF012073
:10324000E0E720684069C0F380100028C1D000206A
:10325000D8E770B504460D46164625E02046FFF730
:1032600007FE08B1012070BD681CE8B1FEF7E6FA60
:10327000801BA84200D8BDB920684069C0F3C010C7
:1032800090B900202063202084F83D00002084F8BD
:103290003E00206C40F02000206400BF002084F835
:1032A0003C0000BF0120DEE720684069C0F3C01089
:1032B0000028D3D00020D6E72DE9F84F0546002698
:1032C0004FF0E020846934480068844214D93349BF
:1032D00033480068FCF7D2FF80462F490968601A1E
:1032E000FDF793F881464146FCF7C8FF07462D4994
:1032F000FCF792FF064620E0284929480068FCF7C1
:10330000BDFF00902046FDF780F882462248006805
:10331000FDF77BF88346224801685846FCF779FFA1
:1033200081465146FCF720FF80460099FCF7A6FF36
:1033300007461C49FCF770FF064631461A480068EC
:10334000FCF712FF0746394617480068FCF796FF5E
:1033500016490860084601684FF07E50FCF756FF9A
:1033600081462946FCF758FF0746114801680F4877
:103370000068FCF751FF80463946FCF7F5FE0D4921
:103380000860084600680A49086003480460094864
:103390000068BDE8F88F00001C00002000007A449F
:1033A000E00000206F12833A2C000020240000204F
:1033B00020000020280000200EB500200090019081
:1033C000029018481849086081151748816000214B
:1033D000017301754FF46021C161002012494860FA
:1033E000022111480161FDF777FD08B1FDF7A2FB4D
:1033F00008200090012001900020029069460A48B0
:10340000FDF7B6FC08B1FDF795FB092000900220FE
:10341000019069460448FDF7ABFC08B1FDF78AFB53
:103420000EBD0000002401406801002008B500BF67
:103430000A48406940F0010008494861084640696F
:1034400000F00100009000BF00BF002211460B20D9
:10345000FEF758FD0B20FEF745FD08BD00100240A9
:1034600000B585B00020019002900390049000BF49
:103470001D48806940F020001B498861084680692A
:1034800000F02000009000BF00BF00BF0846806928
:1034900040F0040088610846806900F00400009054
:1034A00000BF00BF00BF0846806940F00800886187
:1034B0000846806900F00800009000BF00BF0022AD
:1034C00089150A48FEF7B4F94FF480700190012085
:1034D0000290002003900220049001A90348FEF707
:1034E00017F805B000BD00000010024000080140C0
:1034F00010B50B480B4908600B484860002109488B
:103500008160C1604FF480410161002141618161AE
:10351000C1610162FEF798F908B1FDF70BFB10BD20
:1035200000580040DC010020A086010000B58DB0ED
:10353000002009900A900B900C90079008901C2195
:103540006846FCF706FE4FF08040284908600020DE
:10355000486000212548816041F29311C16000213B
:10356000016180218161FFF7E7F908B1FDF7E2FA17
:103570004FF48050099009A91C48FFF727FA08B1B9
:10358000FDF7D8FA1948FFF753FB08B1FDF7D2FA57
:1035900000200790089007A91448FFF78BF908B19D
:1035A000FDF7C8FA6020009000200190029004907E
:1035B000002269460D48FFF7B9FA08B1FDF7BAFADB
:1035C000042269460948FFF7B1FA08B1FDF7B2FADB
:1035D000082269460548FFF7A9FA08B1FDF7AAFADB
:1035E0000248FFF779FA0DB000BD0000300200205C
:1035F00010B50B480B4908604FF4E13048600021DA
:1036000008488160C16001610C2141610021816134
:10361000C161FFF7ABFB08B1FDF78CFA10BD0000EC
:10362000003801407802002000BFFEE700B585B0F9
:103630000020019002900390049000BF0E48806922
:1036400040F004000C4988610846806900F00400DD
:10365000009000BF00BF8815019001200290032058
:10366000049001A90548FDF753FF01221102034808
:10367000FEF7DEF805B000BD001002400008014072
:1036800000BFFEE72DE9F04F8BB004460E46002048
:1036900009904FF0E0208569A069A8421BD24349F8
:1036A00043480068FCF7EAFD0490A169681AFCF73A
:1036B000ACFE03900499FCF7E1FD0590FCF7D7FE02
:1036C0003C4A3D4BCDE90601FCF716FE0746FCF7E8
:1036D000E1FE099027E0354935480068FCF7CEFD4A
:1036E00004902846FCF791FE0290A069FCF78DFE3D
:1036F00000902F4801680098FCF78BFD019002991B
:10370000FCF732FD03900499FCF7B8FD0590FCF737
:10371000AEFE284A284BCDE90601FCF7EDFD074631
:10372000FCF7B8FE099031462068FCF775FD08905B
:103730004FF07C516068FCF76FFD07900999FCF72A
:103740006BFD80463146FCF767FD07462169FCF7B3
:103750000BFD8146194A1A49484600F0F3FB8146A1
:103760003046E168FCF752FD8046A168FCF754FD45
:1037700007460999FCF782FD824649460898FCF7FE
:10378000F3FC07465146FCF7EFFC83460B4A0C4915
:10379000584600F0D7FB8346E660C4F81090C4F8A2
:1037A00014B0A56158460BB0BDE8F08F00007A4414
:1037B000E00000208DEDB5A0F7C6B03E0000A040AF
:1037C0000000A0C010B50160426083600024C460A6
:1037D00004614461846110BD70B504464FF07E51B0
:1037E0002046FCF713FD0546FCF72DFE014909684C
:1037F000486370BD3002002070B504464FF07E5122
:103800002046FCF703FD0546FCF71DFE014909684B
:10381000886370BD3002002070B504464FF07E51C1
:103820002046FCF7F3FC0546FCF70DFE014909684C
:10383000C86370BD300200207047000008B5084919
:103840000968C9084FF47A72B1FBF2F14143009163
:1038500000BF00BF00994A1E00920029F9D108BD9F
:10386000FC000020704700002DE9F0470446884620
:1038700015462846FCF772FF074684F00046394695
:103880003046FCF7C9FC2F4908602846FCF710FFBA
:1038900006462146FCF7C0FC2B4908604FF08041EA
:1038A0002A480068FCF7EAFC0646264801683046CC
:1038B000FCF75AFC264908604FF080412348006815
:1038C000FCF7DCFC8146204801682248FCF7A4FC98
:1038D00082461C4801685046FCF798FC07464FF0AA
:1038E0008041FCF7CBFC06464946FCF73DFC1A49F3
:1038F00008604FF0804115480068FCF7BFFC814626
:10390000114801681348FCF787FC82460D4801689E
:103910005046FCF729FC80F000474FF080413846C4
:10392000FCF7ACFC06464946FCF71EFC0B49086058
:1039300008460268084801680548006800F010F869
:10394000BDE8F0876C00002070000020840000209B
:10395000600000203ACD933F640000206800002002
:103960002DE9F04706460C4615460027B846B946ED
:103970002A4800210268304600F02AFB0746274803
:1039800000210268204600F023FB804623480021E6
:103990000268284600F01CFB814621480168384631
:1039A000FCF76CFC82464FF07E52002100F010FBC9
:1039B0001C4908601A4801684046FCF75FFC8246D3
:1039C0004FF07E52002100F003FB174908601448B5
:1039D00001684846FCF752FC82464FF07E520021B7
:1039E00000F0F6FA1149086011490E480068FCF72A
:1039F00013FC8246FFF7F0FE0D490B480068FCF708
:103A00000BFC8246FFF7F8FE094908480068FCF7FE
:103A100003FC8246FFF700FFBDE8F087800000202E
:103A20008400002074000020780000207C0000202A
:103A300000A08C452DE9F04105460C461848FDF7DD
:103A4000BBF800F0D9FA0746154A516810683A46A3
:103A500000F08CFA0646FFF72FFC12490860084672
:103A600001682846FCF7D2FB07460F480068FCF7C0
:103A7000C3FC80463946FCF7CFFB0646314620465C
:103A8000FFF700FE0949086000F0B6FA0646324624
:103A9000002106480068FFF7E7FEBDE8F08100005E
:103AA00004010020A800002090000020AC000020AD
:103AB00010B5FEF7A7F910BD00B593B0282109A8ED
:103AC000FCF747FB142104A8FCF743FB00200090FF
:103AD0000190029003900120099000040A900020B8
:103AE0000B9001200D9002201090C10311914FF412
:103AF000E011129109A8FEF791FC08B1FDF71AF840
:103B00000F20049002200590002006904FF4806062
:103B1000079000200890022104A8FEF75BFB08B183
:103B2000FDF708F802200090800302906846FEF737
:103B3000B9FA08B1FCF7FEFF13B000BD70470000F2
:103B400010B502681C4B984208D0B0F1804F05D0E8
:103B50001A4B984202D01A4B984203D122F07002BD
:103B60004B681A43144B984208D0B0F1804F05D0EF
:103B7000124B984202D0124B984203D122F4407269
:103B8000CB681A4322F080034C6943EA04020260C6
:103B90008B68C3620B688362074B984201D10B6943
:103BA000036301234361036903F001031BB103694C
:103BB00023F00103036110BD002C0140000400400C
:103BC0000008004030B501F01F05012404FA05F398
:103BD000046A9C430462046A01F01F0502FA05F5B9
:103BE0002C43046230BD30B50C46816821F47F411E
:103BF00042EA032525432943816030BD0A46816896
:103C000021F0700142F00703194381607047000002
:103C100030B5026A056A25F00105056243688469CA
:103C200024F0700424F003040D682C4322F00202F7
:103C30008D682A430D4DA84206D100BF22F008022C
:103C4000CD682A4322F00402084DA84207D123F48C
:103C5000807323F400734D692B438D692B434360BC
:103C600084614D684563026230BD0000002C014054
:103C700030B5026A056A25F010050562436884695B
:103C800024F4E04424F440740D6844EA052422F04E
:103C900020028D6842EA05120E4DA84207D100BFEE
:103CA00022F08002CD6842EA051222F04002094D5E
:103CB000A84209D123F4806323F400634D6943EAE9
:103CC00085038D6943EA8503436084614D6885639C
:103CD000026230BD002C014030B5026A056A25F44D
:103CE000807505624368C46924F0700424F00304FD
:103CF0000D682C4322F400728D6842EA05220F4DB4
:103D0000A84207D100BF22F40062CD6842EA052232
:103D100022F48062094DA84209D123F4805323F490
:103D200000534D6943EA05138D6943EA0513436067
:103D3000C4614D68C563026230BD0000002C0140C3
:103D400030B5036A056A25F4805505624468C26986
:103D500022F4E04222F440720D6842EA052223F484
:103D600000538D6843EA0533064DA84204D124F47C
:103D700080444D6944EA85144460C2614D6805641D
:103D8000036230BD002C014030B50B461446026A78
:103D9000056A25F001050562816921F0F00141EA1B
:103DA000041122F00A021A438161026230BD30B56B
:103DB0000B461446026A056A25F010050562816902
:103DC00021F4704141EA043122F0A00242EA0312D8
:103DD0008161026230BD000070B504462168096946
:103DE00021F44051E2681143226811612269A168FF
:103DF0001143626941EA02052168C96841F20C6217
:103E0000914329432268D1602168496921F44071B6
:103E1000A2691143226851612D4A2168914202D161
:103E2000FEF7B4FA01E0FEF7A1FA00EBC00101EBE6
:103E3000001162689200B1FBF2F100EBC00202EBEC
:103E4000001263689B00B2FBF3F26423B2FBF3F24F
:103E500002EBC20303EB0212A1EB8201322202EB5E
:103E600001116422B1FBF2F101F0F00100EBC0029C
:103E700002EB001263689B00B2FBF3F26423B2FB17
:103E8000F3F201EB021200EBC00101EB00116368D9
:103E90009B00B1FBF3F100EBC00303EB001366687A
:103EA000B600B3FBF6F36426B3FBF6F303EBC306ED
:103EB00006EB0313A1EB8301322303EB011164230F
:103EC000B1FBF3F101F00F0111442268916070BD64
:103ED0000038014000BFFEE702480068C0F302203E
:103EE000704700000CED00E010B5002804DB0A0765
:103EF000130E054A135406E00A07140E034A00F095
:103F00000F031B1FD45410BD00E400E018ED00E0C7
:103F100000210846FCF7B2B902E008C8121F08C128
:103F2000002AFAD170477047002001E001C1121F3A
:103F3000002AFBD17047000001490860704700006B
:103F40000001002070B505460E461446314628464D
:103F5000FCF7BCFA01D2304670BD21462846FCF77A
:103F6000BFFA01D22046F7E72846F5E72DE9FC5FC6
:103F700004460E461546274631461348FCF74CF9D1
:103F8000824612492046FCF747F983465146FCF722
:103F9000EBF880462846FCF78BFB01902846FCF79F
:103FA000DDFB009038460099FCF736F98246404622
:103FB0000199FCF731F983465146FCF727F9814610
:103FC0004846BDE8FC9F00003ACD933F3ACD133FF1
:103FD00070B505460E46144631462846FCF776FA7B
:103FE00001D2304670BD21462846FCF779FA01D24D
:103FF0002046F7E72846F5E72DE9F0470F48006827
:10400000FCF7FAF907460E480068FCF7F5F9804618
:10401000FCF7AEFD81464146FCF7FEF80646394600
:10402000FCF7FAF80546074801682846FCF7EEF861
:10403000044600F091F8BDE8F087000090000020F1
:104040008C0000208800002070B5054620F000405C
:10405000C0F1FF400C46C00F05D124F00040C0F174
:10406000FF40C00F17D02846FCF78AFA6FEAD051FC
:1040700011F0FF0F08BF70BDE917B1EBE07F08BF7B
:1040800070BD014664F31E01BDE870400A4601465A
:104090001046FCF7BEB84FF07F40B0EB450F18BF9D
:1040A0005FEA4400DFD10120FFF746FFBDE8704022
:1040B000FFF72EBFFDF7B2FEFFF7FEFCFFF7D0F9CA
:1040C000FFF7B4F9FFF714FAFFF730FAFFF790FAA9
:1040D000FFF772F94FF0E0214869FCF796F91149B2
:1040E0000860114B114A12491248FFF76BFB00237D
:1040F000114A12491248FFF765FB0023114A124981
:104100001248FFF75FFBFFF791FA1148FCF716FD25
:104110006420FDF7E9F904E00C490E480068FFF758
:1041200089FCF9E7E000002000002041000068421F
:1041300000002042140100200AD7233C2731083E0A
:1041400030010020000048430000A0404C01002046
:104150009A994941E400002070B504460849204678
:10416000FFF772FF054600212846FCF7B9F901D890
:10417000284670BD02492846FBF7F6FFF9E7000024
:10418000DB0FC94002030405060708090A0B0C0DE2
:104190000E0F1010010202030405060708090A0B9E
:1041A0000C0D0E0F101001020000000000000000B6
:1041B00001020304060708090000000001020304CD
:1041C00000000000920E493CB10AC93C2BC3163DC9
:1041D0002EFB483D752B7B3D04A9963D80B6AF3D37
:1041E00036BDC83D2FBCE13D73B2FA3D87CF093ED5
:1041F0008340163EB5AB223EA2102F3ECF6E3B3E13
:10420000C2C5473E0115543E135C603E7F9A6C3E2A
:10421000CCCF783EC07D823E938E883E229A8E3EE1
:1042200032A0943E86A09A3EE59AA03E128FA63E0A
:10423000D47CAC3EEF63B23E2A44B83E491DBE3E3C
:1042400015EFC33E53B9C93ECA7BCF3E4136D53E7A
:1042500080E8DA3E4F92E03E7533E63EBBCBEB3E64
:10426000EA5AF13ECBE0F63E275DFC3EE4E7003F34
:104270003D9C033F824B063F9BF5083F6B9A0B3FEB
:10428000DA390E3FCDD3103F2A68133FD9F6153FD8
:10429000C07F183FC6021B3FD17F1D3FCBF61F3F9B
:1042A0009967223F25D2243F5636273F1594293F50
:1042B0004AEB2B3FDE3B2E3FBB85303FC9C8323F28
:1042C000F304353F233A373F4268393F3B8F3B3F4A
:1042D000F9AE3D3F67C73F3F70D8413F01E2433FE2
:1042E00003E4453F65DE473F12D1493FF8BB4B3FF2
:1042F000029F4D3F207A4F3F3D4D513F4918533F5C
:1043000031DB543FE595563F5348583F6AF2593FD9
:104310001A945B3F532D5D3F05BE5E3F2146603FD3
:1043200097C5613F5A3C633F59AA643F880F663F77
:10433000D86B673F3CBF683FA7096A3F0C4B6B3F98
:104340005E836C3F93B26D3F9ED86E3F73F56F3FB7
:104350000809713F5213723F4714733FDD0B743FDE
:104360000BFA743FC6DE753F07BA763FC58B773FC1
:10437000F853783F9812793F9DC7793F02737A3F8F
:10438000BE147B3FCDAC7B3F283B7C3FC9BF7C3F0D
:10439000AC3A7D3FCCAB7D3F23137E3FB0707E3F78
:1043A0006DC47E3F580E7F3F6D4E7F3FAB847F3F95
:1043B0000FB17F3F97D37F3F43EC7F3F11FB7F3FA0
:1043C0000000803F11FB7F3F43EC7F3F97D37F3F4F
:1043D0000FB17F3FAB847F3F6D4E7F3F580E7F3FD5
:1043E0006DC47E3FB0707E3F23137E3FCCAB7D3FDC
:1043F000AC3A7D3FC9BF7C3F283B7C3FCDAC7B3F87
:10440000BE147B3F02737A3F9DC7793F9812793F74
:10441000F853783FC58B773F07BA763FC6DE753FC6
:104420000BFA743FDD0B743F4714733F5213723F16
:104430000809713F73F56F3F9ED86E3F93B26D3F91
:104440005E836C3F0C4B6B3FA7096A3F3CBF683FE4
:10445000D86B673F880F663F59AA643F5A3C633F59
:1044600097C5613F2146603F05BE5E3F532D5D3FCE
:104470001A945B3F6AF2593F5348583FE595563FBF
:1044800031DB543F4918533F3D4D513F207A4F3F58
:10449000029F4D3FF8BB4B3F12D1493F65DE473F7E
:1044A00003E4453F01E2433F70D8413F67C73F3FC8
:1044B000F9AE3D3F3B8F3B3F4268393F233A373FA0
:1044C000F304353FC9C8323FBB85303FDE3B2E3F4A
:1044D0004AEB2B3F1594293F5636273F25D2243FE0
:1044E0009967223FCBF61F3FD17F1D3FC6021B3F7E
:1044F000C07F183FD9F6153F2A68133FCDD3103F30
:10450000DA390E3F6B9A0B3F9BF5083F824B063F13
:104510003D9C033FE4E7003F275DFC3ECBE0F63ED9
:10452000EA5AF13EBBCBEB3E7533E63E4F92E03E9E
:1045300080E8DA3E4136D53ECA7BCF3E53B9C93E0C
:1045400015EFC33E491DBE3E2A44B83EEF63B23E5E
:10455000D47CAC3E128FA63EE59AA03E86A09A3E41
:1045600032A0943E229A8E3E938E883EC07D823E3B
:10457000CCCF783E7F9A6C3E135C603E0115543E72
:10458000C2C5473ECF6E3B3EA2102F3EB5AB223E8A
:104590008340163E87CF093E73B2FA3D2FBCE13D02
:1045A00036BDC83D80B6AF3D04A9963D752B7B3D19
:1045B0002EFB483D2BC3163DB10AC93C920E493C27
:1045C00000000000920E49BCB10AC9BC2BC316BD45
:1045D0002EFB48BD752B7BBD04A996BD80B6AFBD33
:1045E00036BDC8BD2FBCE1BD73B2FABD87CF09BED1
:1045F000834016BEB5AB22BEA2102FBECF6E3BBE0F
:10460000C2C547BE011554BE135C60BE7F9A6CBE26
:10461000CCCF78BEC07D82BE938E88BE229A8EBEDD
:1046200032A094BE86A09ABEE59AA0BE128FA6BE06
:10463000D47CACBEEF63B2BE2A44B8BE491DBEBE38
:1046400015EFC3BE53B9C9BECA7BCFBE4136D5BE76
:1046500080E8DABE4F92E0BE7533E6BEBBCBEBBE60
:10466000EA5AF1BECBE0F6BE275DFCBEE4E700BF30
:104670003D9C03BF824B06BF9BF508BF6B9A0BBFE7
:10468000DA390EBFCDD310BF2A6813BFD9F615BFD4
:10469000C07F18BFC6021BBFD17F1DBFCBF61FBF97
:1046A000996722BF25D224BF563627BF159429BF4C
:1046B0004AEB2BBFDE3B2EBFBB8530BFC9C832BF24
:1046C000F30435BF233A37BF426839BF3B8F3BBF46
:1046D000F9AE3DBF67C73FBF70D841BF01E243BFDE
:1046E00003E445BF65DE47BF12D149BFF8BB4BBFEE
:1046F000029F4DBF207A4FBF3D4D51BF491853BF58
:1047000031DB54BFE59556BF534858BF6AF259BFD5
:104710001A945BBF532D5DBF05BE5EBF214660BFCF
:1047200097C561BF5A3C63BF59AA64BF880F66BF73
:10473000D86B67BF3CBF68BFA7096ABF0C4B6BBF94
:104740005E836CBF93B26DBF9ED86EBF73F56FBFB3
:10475000080971BF521372BF471473BFDD0B74BFDA
:104760000BFA74BFC6DE75BF07BA76BFC58B77BFBD
:10477000F85378BF981279BF9DC779BF02737ABF8B
:10478000BE147BBFCDAC7BBF283B7CBFC9BF7CBF09
:10479000AC3A7DBFCCAB7DBF23137EBFB0707EBF74
:1047A0006DC47EBF580E7FBF6D4E7FBFAB847FBF91
:1047B0000FB17FBF97D37FBF43EC7FBF11FB7FBF9C
:1047C000000080BF11FB7FBF43EC7FBF97D37FBF4B
:1047D0000FB17FBFAB847FBF6D4E7FBF580E7FBFD1
:1047E0006DC47EBFB0707EBF23137EBFCCAB7DBFD8
:1047F000AC3A7DBFC9BF7CBF283B7CBFCDAC7BBF83
:10480000BE147BBF02737ABF9DC779BF981279BF70
:10481000F85378BFC58B77BF07BA76BFC6DE75BFC2
:104820000BFA74BFDD0B74BF471473BF521372BF12
:10483000080971BF73F56FBF9ED86EBF93B26DBF8D
:104840005E836CBF0C4B6BBFA7096ABF3CBF68BFE0
:10485000D86B67BF880F66BF59AA64BF5A3C63BF55
:1048600097C561BF214660BF05BE5EBF532D5DBFCA
:104870001A945BBF6AF259BF534858BFE59556BFBB
:1048800031DB54BF491853BF3D4D51BF207A4FBF54
:10489000029F4DBFF8BB4BBF12D149BF65DE47BF7A
:1048A00003E445BF01E243BF70D841BF67C73FBFC4
:1048B000F9AE3DBF3B8F3BBF426839BF233A37BF9C
:1048C000F30435BFC9C832BFBB8530BFDE3B2EBF46
:1048D0004AEB2BBF159429BF563627BF25D224BFDC
:1048E000996722BFCBF61FBFD17F1DBFC6021BBF7A
:1048F000C07F18BFD9F615BF2A6813BFCDD310BF2C
:10490000DA390EBF6B9A0BBF9BF508BF824B06BF0F
:104910003D9C03BFE4E700BF275DFCBECBE0F6BED5
:10492000EA5AF1BEBBCBEBBE7533E6BE4F92E0BE9A
:1049300080E8DABE4136D5BECA7BCFBE53B9C9BE08
:1049400015EFC3BE491DBEBE2A44B8BEEF63B2BE5A
:10495000D47CACBE128FA6BEE59AA0BE86A09ABE3D
:1049600032A094BE229A8EBE938E88BEC07D82BE37
:10497000CCCF78BE7F9A6CBE135C60BE011554BE6E
:10498000C2C547BECF6E3BBEA2102FBEB5AB22BE86
:10499000834016BE87CF09BE73B2FABD2FBCE1BDFE
:1049A00036BDC8BD80B6AFBD04A996BD752B7BBD15
:1049B0002EFB48BD2BC316BDB10AC9BC920E49BC23
:1049C00000000080E449000800000020040100000D
:1049D000183F0008E84A000804010020BC05000058
:1049E000283F000800000000000000000000000058
:1049F00000000000000000000000000000000000B7
:104A00000000000000000000EE7C7F3F000000007E
:104A1000CDCCCC3E0000000000000000EE7C7F3FCB
:104A200000000000CDCCCC3E0000000000000000E3
:104A3000EE7C7F3F00000000CDCCCC3E02000000A9
:104A40000000000000000000000000000000000066
:104A50000000000000000000000000000000000056
:104A6000000000009A994941000000000000000089
:104A7000070000000100000000000000000000002E
:104A80000000000000000000000000000000000026
:104A90000000000000000000000000000000000016
:104AA0000000000000000000000000000000000006
:104AB00000000000000000000000000000000000F6
:104AC0000000000000000000CDCCCC3D0000004004
:104AD00000000000000000001000000001000000C5
:084AE00000127A000000000042
:04000005080000ED02
:00000001FF
